{
	"4uzd_done.sol": {
		"eSutartis": {
			"abi": [
				{
					"anonymous": false,
					"inputs": [
						{
							"indexed": true,
							"internalType": "uint256",
							"name": "taskId",
							"type": "uint256"
						},
						{
							"indexed": true,
							"internalType": "address",
							"name": "freelancer",
							"type": "address"
						}
					],
					"name": "TaskAccepted",
					"type": "event"
				},
				{
					"anonymous": false,
					"inputs": [
						{
							"indexed": true,
							"internalType": "uint256",
							"name": "taskId",
							"type": "uint256"
						},
						{
							"indexed": true,
							"internalType": "address",
							"name": "cancelledBy",
							"type": "address"
						}
					],
					"name": "TaskCancelled",
					"type": "event"
				},
				{
					"anonymous": false,
					"inputs": [
						{
							"indexed": true,
							"internalType": "uint256",
							"name": "taskId",
							"type": "uint256"
						}
					],
					"name": "TaskCompleted",
					"type": "event"
				},
				{
					"anonymous": false,
					"inputs": [
						{
							"indexed": true,
							"internalType": "uint256",
							"name": "taskId",
							"type": "uint256"
						},
						{
							"indexed": true,
							"internalType": "address",
							"name": "client",
							"type": "address"
						},
						{
							"indexed": false,
							"internalType": "uint256",
							"name": "payment",
							"type": "uint256"
						}
					],
					"name": "TaskCreated",
					"type": "event"
				},
				{
					"anonymous": false,
					"inputs": [
						{
							"indexed": true,
							"internalType": "uint256",
							"name": "taskId",
							"type": "uint256"
						},
						{
							"indexed": true,
							"internalType": "address",
							"name": "freelancer",
							"type": "address"
						},
						{
							"indexed": false,
							"internalType": "uint256",
							"name": "amount",
							"type": "uint256"
						}
					],
					"name": "TaskPaid",
					"type": "event"
				},
				{
					"inputs": [
						{
							"internalType": "uint256",
							"name": "_taskId",
							"type": "uint256"
						}
					],
					"name": "acceptTask",
					"outputs": [],
					"stateMutability": "nonpayable",
					"type": "function"
				},
				{
					"inputs": [
						{
							"internalType": "uint256",
							"name": "_taskId",
							"type": "uint256"
						}
					],
					"name": "cancelTask",
					"outputs": [],
					"stateMutability": "nonpayable",
					"type": "function"
				},
				{
					"inputs": [
						{
							"internalType": "uint256",
							"name": "_taskId",
							"type": "uint256"
						}
					],
					"name": "confirmAndPay",
					"outputs": [],
					"stateMutability": "nonpayable",
					"type": "function"
				},
				{
					"inputs": [],
					"name": "createTask",
					"outputs": [],
					"stateMutability": "payable",
					"type": "function"
				},
				{
					"inputs": [
						{
							"internalType": "uint256",
							"name": "_taskId",
							"type": "uint256"
						}
					],
					"name": "getTask",
					"outputs": [
						{
							"internalType": "address",
							"name": "client",
							"type": "address"
						},
						{
							"internalType": "address",
							"name": "freelancer",
							"type": "address"
						},
						{
							"internalType": "uint256",
							"name": "payment",
							"type": "uint256"
						},
						{
							"internalType": "enum eSutartis.Status",
							"name": "status",
							"type": "uint8"
						}
					],
					"stateMutability": "view",
					"type": "function"
				},
				{
					"inputs": [
						{
							"internalType": "uint256",
							"name": "_taskId",
							"type": "uint256"
						}
					],
					"name": "markCompleted",
					"outputs": [],
					"stateMutability": "nonpayable",
					"type": "function"
				},
				{
					"inputs": [],
					"name": "taskCount",
					"outputs": [
						{
							"internalType": "uint256",
							"name": "",
							"type": "uint256"
						}
					],
					"stateMutability": "view",
					"type": "function"
				},
				{
					"inputs": [
						{
							"internalType": "uint256",
							"name": "",
							"type": "uint256"
						}
					],
					"name": "tasks",
					"outputs": [
						{
							"internalType": "address payable",
							"name": "client",
							"type": "address"
						},
						{
							"internalType": "address payable",
							"name": "freelancer",
							"type": "address"
						},
						{
							"internalType": "uint256",
							"name": "payment",
							"type": "uint256"
						},
						{
							"internalType": "enum eSutartis.Status",
							"name": "status",
							"type": "uint8"
						}
					],
					"stateMutability": "view",
					"type": "function"
				}
			],
			"devdoc": {
				"kind": "dev",
				"methods": {},
				"version": 1
			},
			"evm": {
				"assembly": "    /* \"4uzd_done.sol\":61:4129  contract eSutartis {... */\n  mstore(0x40, 0x80)\n  callvalue\n  dup1\n  iszero\n  tag_1\n  jumpi\n  revert(0x00, 0x00)\ntag_1:\n  pop\n  dataSize(sub_0)\n  dup1\n  dataOffset(sub_0)\n  0x00\n  codecopy\n  0x00\n  return\nstop\n\nsub_0: assembly {\n        /* \"4uzd_done.sol\":61:4129  contract eSutartis {... */\n      mstore(0x40, 0x80)\n      jumpi(tag_1, lt(calldatasize, 0x04))\n      shr(0xe0, calldataload(0x00))\n      dup1\n      0x93bb2284\n      gt\n      tag_10\n      jumpi\n      dup1\n      0x93bb2284\n      eq\n      tag_6\n      jumpi\n      dup1\n      0xa7476493\n      eq\n      tag_7\n      jumpi\n      dup1\n      0xb6cb58a5\n      eq\n      tag_8\n      jumpi\n      dup1\n      0xcac5c512\n      eq\n      tag_9\n      jumpi\n      jump(tag_1)\n    tag_10:\n      dup1\n      0x1bf6912d\n      eq\n      tag_2\n      jumpi\n      dup1\n      0x1d65e77e\n      eq\n      tag_3\n      jumpi\n      dup1\n      0x7eec20a8\n      eq\n      tag_4\n      jumpi\n      dup1\n      0x8d977672\n      eq\n      tag_5\n      jumpi\n    tag_1:\n      revert(0x00, 0x00)\n        /* \"4uzd_done.sol\":1637:2025  function acceptTask(uint256 _taskId) external {... */\n    tag_2:\n      callvalue\n      dup1\n      iszero\n      tag_11\n      jumpi\n      revert(0x00, 0x00)\n    tag_11:\n      pop\n      tag_12\n      0x04\n      dup1\n      calldatasize\n      sub\n      dup2\n      add\n      swap1\n      tag_13\n      swap2\n      swap1\n      tag_14\n      jump\t// in\n    tag_13:\n      tag_15\n      jump\t// in\n    tag_12:\n      stop\n        /* \"4uzd_done.sol\":3715:4126  function getTask(uint256 _taskId)... */\n    tag_3:\n      callvalue\n      dup1\n      iszero\n      tag_16\n      jumpi\n      revert(0x00, 0x00)\n    tag_16:\n      pop\n      tag_17\n      0x04\n      dup1\n      calldatasize\n      sub\n      dup2\n      add\n      swap1\n      tag_18\n      swap2\n      swap1\n      tag_14\n      jump\t// in\n    tag_18:\n      tag_19\n      jump\t// in\n    tag_17:\n      mload(0x40)\n      tag_20\n      swap5\n      swap4\n      swap3\n      swap2\n      swap1\n      tag_21\n      jump\t// in\n    tag_20:\n      mload(0x40)\n      dup1\n      swap2\n      sub\n      swap1\n      return\n        /* \"4uzd_done.sol\":3020:3670  function cancelTask(uint256 _taskId) external {... */\n    tag_4:\n      callvalue\n      dup1\n      iszero\n      tag_22\n      jumpi\n      revert(0x00, 0x00)\n    tag_22:\n      pop\n      tag_23\n      0x04\n      dup1\n      calldatasize\n      sub\n      dup2\n      add\n      swap1\n      tag_24\n      swap2\n      swap1\n      tag_14\n      jump\t// in\n    tag_24:\n      tag_25\n      jump\t// in\n    tag_23:\n      stop\n        /* \"4uzd_done.sol\":564:601  mapping(uint256 => Task) public tasks */\n    tag_5:\n      callvalue\n      dup1\n      iszero\n      tag_26\n      jumpi\n      revert(0x00, 0x00)\n    tag_26:\n      pop\n      tag_27\n      0x04\n      dup1\n      calldatasize\n      sub\n      dup2\n      add\n      swap1\n      tag_28\n      swap2\n      swap1\n      tag_14\n      jump\t// in\n    tag_28:\n      tag_29\n      jump\t// in\n    tag_27:\n      mload(0x40)\n      tag_30\n      swap5\n      swap4\n      swap3\n      swap2\n      swap1\n      tag_31\n      jump\t// in\n    tag_30:\n      mload(0x40)\n      dup1\n      swap2\n      sub\n      swap1\n      return\n        /* \"4uzd_done.sol\":2485:2960  function confirmAndPay(uint256 _taskId) external {... */\n    tag_6:\n      callvalue\n      dup1\n      iszero\n      tag_32\n      jumpi\n      revert(0x00, 0x00)\n    tag_32:\n      pop\n      tag_33\n      0x04\n      dup1\n      calldatasize\n      sub\n      dup2\n      add\n      swap1\n      tag_34\n      swap2\n      swap1\n      tag_14\n      jump\t// in\n    tag_34:\n      tag_35\n      jump\t// in\n    tag_33:\n      stop\n        /* \"4uzd_done.sol\":1186:1591  function createTask() external payable {... */\n    tag_7:\n      tag_36\n      tag_37\n      jump\t// in\n    tag_36:\n      stop\n        /* \"4uzd_done.sol\":533:557  uint256 public taskCount */\n    tag_8:\n      callvalue\n      dup1\n      iszero\n      tag_38\n      jumpi\n      revert(0x00, 0x00)\n    tag_38:\n      pop\n      tag_39\n      tag_40\n      jump\t// in\n    tag_39:\n      mload(0x40)\n      tag_41\n      swap2\n      swap1\n      tag_42\n      jump\t// in\n    tag_41:\n      mload(0x40)\n      dup1\n      swap2\n      sub\n      swap1\n      return\n        /* \"4uzd_done.sol\":2082:2426  function markCompleted(uint256 _taskId) external {... */\n    tag_9:\n      callvalue\n      dup1\n      iszero\n      tag_43\n      jumpi\n      revert(0x00, 0x00)\n    tag_43:\n      pop\n      tag_44\n      0x04\n      dup1\n      calldatasize\n      sub\n      dup2\n      add\n      swap1\n      tag_45\n      swap2\n      swap1\n      tag_14\n      jump\t// in\n    tag_45:\n      tag_46\n      jump\t// in\n    tag_44:\n      stop\n        /* \"4uzd_done.sol\":1637:2025  function acceptTask(uint256 _taskId) external {... */\n    tag_15:\n        /* \"4uzd_done.sol\":1694:1711  Task storage task */\n      0x00\n        /* \"4uzd_done.sol\":1714:1719  tasks */\n      0x01\n        /* \"4uzd_done.sol\":1714:1728  tasks[_taskId] */\n      0x00\n        /* \"4uzd_done.sol\":1720:1727  _taskId */\n      dup4\n        /* \"4uzd_done.sol\":1714:1728  tasks[_taskId] */\n      dup2\n      mstore\n      0x20\n      add\n      swap1\n      dup2\n      mstore\n      0x20\n      add\n      0x00\n      keccak256\n        /* \"4uzd_done.sol\":1694:1728  Task storage task = tasks[_taskId] */\n      swap1\n      pop\n        /* \"4uzd_done.sol\":1764:1775  Status.Open */\n      0x00\n        /* \"4uzd_done.sol\":1749:1775  task.status == Status.Open */\n      0x04\n      dup2\n      gt\n      iszero\n      tag_48\n      jumpi\n      tag_49\n      tag_50\n      jump\t// in\n    tag_49:\n    tag_48:\n        /* \"4uzd_done.sol\":1749:1753  task */\n      dup2\n        /* \"4uzd_done.sol\":1749:1760  task.status */\n      0x03\n      add\n      0x00\n      swap1\n      sload\n      swap1\n      0x0100\n      exp\n      swap1\n      div\n      0xff\n      and\n        /* \"4uzd_done.sol\":1749:1775  task.status == Status.Open */\n      0x04\n      dup2\n      gt\n      iszero\n      tag_51\n      jumpi\n      tag_52\n      tag_50\n      jump\t// in\n    tag_52:\n    tag_51:\n      eq\n        /* \"4uzd_done.sol\":1741:1796  require(task.status == Status.Open, \"Task is not open\") */\n      tag_53\n      jumpi\n      mload(0x40)\n      0x08c379a000000000000000000000000000000000000000000000000000000000\n      dup2\n      mstore\n      0x04\n      add\n      tag_54\n      swap1\n      tag_55\n      jump\t// in\n    tag_54:\n      mload(0x40)\n      dup1\n      swap2\n      sub\n      swap1\n      revert\n    tag_53:\n        /* \"4uzd_done.sol\":1829:1833  task */\n      dup1\n        /* \"4uzd_done.sol\":1829:1840  task.client */\n      0x00\n      add\n      0x00\n      swap1\n      sload\n      swap1\n      0x0100\n      exp\n      swap1\n      div\n      0xffffffffffffffffffffffffffffffffffffffff\n      and\n        /* \"4uzd_done.sol\":1815:1840  msg.sender != task.client */\n      0xffffffffffffffffffffffffffffffffffffffff\n      and\n        /* \"4uzd_done.sol\":1815:1825  msg.sender */\n      caller\n        /* \"4uzd_done.sol\":1815:1840  msg.sender != task.client */\n      0xffffffffffffffffffffffffffffffffffffffff\n      and\n      sub\n        /* \"4uzd_done.sol\":1807:1874  require(msg.sender != task.client, \"Client cannot accept own task\") */\n      tag_56\n      jumpi\n      mload(0x40)\n      0x08c379a000000000000000000000000000000000000000000000000000000000\n      dup2\n      mstore\n      0x04\n      add\n      tag_57\n      swap1\n      tag_58\n      jump\t// in\n    tag_57:\n      mload(0x40)\n      dup1\n      swap2\n      sub\n      swap1\n      revert\n    tag_56:\n        /* \"4uzd_done.sol\":1913:1923  msg.sender */\n      caller\n        /* \"4uzd_done.sol\":1887:1891  task */\n      dup2\n        /* \"4uzd_done.sol\":1887:1902  task.freelancer */\n      0x01\n      add\n      0x00\n        /* \"4uzd_done.sol\":1887:1924  task.freelancer = payable(msg.sender) */\n      0x0100\n      exp\n      dup2\n      sload\n      dup2\n      0xffffffffffffffffffffffffffffffffffffffff\n      mul\n      not\n      and\n      swap1\n      dup4\n      0xffffffffffffffffffffffffffffffffffffffff\n      and\n      mul\n      or\n      swap1\n      sstore\n      pop\n        /* \"4uzd_done.sol\":1949:1966  Status.InProgress */\n      0x01\n        /* \"4uzd_done.sol\":1935:1939  task */\n      dup2\n        /* \"4uzd_done.sol\":1935:1946  task.status */\n      0x03\n      add\n      0x00\n        /* \"4uzd_done.sol\":1935:1966  task.status = Status.InProgress */\n      0x0100\n      exp\n      dup2\n      sload\n      dup2\n      0xff\n      mul\n      not\n      and\n      swap1\n      dup4\n      0x04\n      dup2\n      gt\n      iszero\n      tag_59\n      jumpi\n      tag_60\n      tag_50\n      jump\t// in\n    tag_60:\n    tag_59:\n      mul\n      or\n      swap1\n      sstore\n      pop\n        /* \"4uzd_done.sol\":2006:2016  msg.sender */\n      caller\n        /* \"4uzd_done.sol\":1984:2017  TaskAccepted(_taskId, msg.sender) */\n      0xffffffffffffffffffffffffffffffffffffffff\n      and\n        /* \"4uzd_done.sol\":1997:2004  _taskId */\n      dup3\n        /* \"4uzd_done.sol\":1984:2017  TaskAccepted(_taskId, msg.sender) */\n      0xc8717b61398fb9d7cacf49fe1e296b2f10e9711226b532842b6ffd642cb6a2c6\n      mload(0x40)\n      mload(0x40)\n      dup1\n      swap2\n      sub\n      swap1\n      log3\n        /* \"4uzd_done.sol\":1683:2025  {... */\n      pop\n        /* \"4uzd_done.sol\":1637:2025  function acceptTask(uint256 _taskId) external {... */\n      pop\n      jump\t// out\n        /* \"4uzd_done.sol\":3715:4126  function getTask(uint256 _taskId)... */\n    tag_19:\n        /* \"4uzd_done.sol\":3813:3827  address client */\n      0x00\n        /* \"4uzd_done.sol\":3842:3860  address freelancer */\n      0x00\n        /* \"4uzd_done.sol\":3875:3890  uint256 payment */\n      0x00\n        /* \"4uzd_done.sol\":3905:3918  Status status */\n      0x00\n        /* \"4uzd_done.sol\":3946:3963  Task storage task */\n      0x00\n        /* \"4uzd_done.sol\":3966:3971  tasks */\n      0x01\n        /* \"4uzd_done.sol\":3966:3980  tasks[_taskId] */\n      0x00\n        /* \"4uzd_done.sol\":3972:3979  _taskId */\n      dup8\n        /* \"4uzd_done.sol\":3966:3980  tasks[_taskId] */\n      dup2\n      mstore\n      0x20\n      add\n      swap1\n      dup2\n      mstore\n      0x20\n      add\n      0x00\n      keccak256\n        /* \"4uzd_done.sol\":3946:3980  Task storage task = tasks[_taskId] */\n      swap1\n      pop\n        /* \"4uzd_done.sol\":4013:4017  task */\n      dup1\n        /* \"4uzd_done.sol\":4013:4024  task.client */\n      0x00\n      add\n      0x00\n      swap1\n      sload\n      swap1\n      0x0100\n      exp\n      swap1\n      div\n      0xffffffffffffffffffffffffffffffffffffffff\n      and\n        /* \"4uzd_done.sol\":4039:4043  task */\n      dup2\n        /* \"4uzd_done.sol\":4039:4054  task.freelancer */\n      0x01\n      add\n      0x00\n      swap1\n      sload\n      swap1\n      0x0100\n      exp\n      swap1\n      div\n      0xffffffffffffffffffffffffffffffffffffffff\n      and\n        /* \"4uzd_done.sol\":4069:4073  task */\n      dup3\n        /* \"4uzd_done.sol\":4069:4081  task.payment */\n      0x02\n      add\n      sload\n        /* \"4uzd_done.sol\":4096:4100  task */\n      dup4\n        /* \"4uzd_done.sol\":4096:4107  task.status */\n      0x03\n      add\n      0x00\n      swap1\n      sload\n      swap1\n      0x0100\n      exp\n      swap1\n      div\n      0xff\n      and\n        /* \"4uzd_done.sol\":3991:4118  return (... */\n      swap5\n      pop\n      swap5\n      pop\n      swap5\n      pop\n      swap5\n      pop\n      pop\n        /* \"4uzd_done.sol\":3715:4126  function getTask(uint256 _taskId)... */\n      swap2\n      swap4\n      pop\n      swap2\n      swap4\n      jump\t// out\n        /* \"4uzd_done.sol\":3020:3670  function cancelTask(uint256 _taskId) external {... */\n    tag_25:\n        /* \"4uzd_done.sol\":3077:3094  Task storage task */\n      0x00\n        /* \"4uzd_done.sol\":3097:3102  tasks */\n      0x01\n        /* \"4uzd_done.sol\":3097:3111  tasks[_taskId] */\n      0x00\n        /* \"4uzd_done.sol\":3103:3110  _taskId */\n      dup4\n        /* \"4uzd_done.sol\":3097:3111  tasks[_taskId] */\n      dup2\n      mstore\n      0x20\n      add\n      swap1\n      dup2\n      mstore\n      0x20\n      add\n      0x00\n      keccak256\n        /* \"4uzd_done.sol\":3077:3111  Task storage task = tasks[_taskId] */\n      swap1\n      pop\n        /* \"4uzd_done.sol\":3160:3164  task */\n      dup1\n        /* \"4uzd_done.sol\":3160:3171  task.client */\n      0x00\n      add\n      0x00\n      swap1\n      sload\n      swap1\n      0x0100\n      exp\n      swap1\n      div\n      0xffffffffffffffffffffffffffffffffffffffff\n      and\n        /* \"4uzd_done.sol\":3146:3171  msg.sender == task.client */\n      0xffffffffffffffffffffffffffffffffffffffff\n      and\n        /* \"4uzd_done.sol\":3146:3156  msg.sender */\n      caller\n        /* \"4uzd_done.sol\":3146:3171  msg.sender == task.client */\n      0xffffffffffffffffffffffffffffffffffffffff\n      and\n      eq\n        /* \"4uzd_done.sol\":3146:3204  msg.sender == task.client || msg.sender == task.freelancer */\n      dup1\n      tag_63\n      jumpi\n      pop\n        /* \"4uzd_done.sol\":3189:3193  task */\n      dup1\n        /* \"4uzd_done.sol\":3189:3204  task.freelancer */\n      0x01\n      add\n      0x00\n      swap1\n      sload\n      swap1\n      0x0100\n      exp\n      swap1\n      div\n      0xffffffffffffffffffffffffffffffffffffffff\n      and\n        /* \"4uzd_done.sol\":3175:3204  msg.sender == task.freelancer */\n      0xffffffffffffffffffffffffffffffffffffffff\n      and\n        /* \"4uzd_done.sol\":3175:3185  msg.sender */\n      caller\n        /* \"4uzd_done.sol\":3175:3204  msg.sender == task.freelancer */\n      0xffffffffffffffffffffffffffffffffffffffff\n      and\n      eq\n        /* \"4uzd_done.sol\":3146:3204  msg.sender == task.client || msg.sender == task.freelancer */\n    tag_63:\n        /* \"4uzd_done.sol\":3124:3268  require(... */\n      tag_64\n      jumpi\n      mload(0x40)\n      0x08c379a000000000000000000000000000000000000000000000000000000000\n      dup2\n      mstore\n      0x04\n      add\n      tag_65\n      swap1\n      tag_66\n      jump\t// in\n    tag_65:\n      mload(0x40)\n      dup1\n      swap2\n      sub\n      swap1\n      revert\n    tag_64:\n        /* \"4uzd_done.sol\":3318:3329  Status.Open */\n      0x00\n        /* \"4uzd_done.sol\":3303:3329  task.status == Status.Open */\n      0x04\n      dup2\n      gt\n      iszero\n      tag_67\n      jumpi\n      tag_68\n      tag_50\n      jump\t// in\n    tag_68:\n    tag_67:\n        /* \"4uzd_done.sol\":3303:3307  task */\n      dup2\n        /* \"4uzd_done.sol\":3303:3314  task.status */\n      0x03\n      add\n      0x00\n      swap1\n      sload\n      swap1\n      0x0100\n      exp\n      swap1\n      div\n      0xff\n      and\n        /* \"4uzd_done.sol\":3303:3329  task.status == Status.Open */\n      0x04\n      dup2\n      gt\n      iszero\n      tag_69\n      jumpi\n      tag_70\n      tag_50\n      jump\t// in\n    tag_70:\n    tag_69:\n      eq\n        /* \"4uzd_done.sol\":3303:3365  task.status == Status.Open || task.status == Status.InProgress */\n      dup1\n      tag_71\n      jumpi\n      pop\n        /* \"4uzd_done.sol\":3348:3365  Status.InProgress */\n      0x01\n        /* \"4uzd_done.sol\":3333:3365  task.status == Status.InProgress */\n      0x04\n      dup2\n      gt\n      iszero\n      tag_72\n      jumpi\n      tag_73\n      tag_50\n      jump\t// in\n    tag_73:\n    tag_72:\n        /* \"4uzd_done.sol\":3333:3337  task */\n      dup2\n        /* \"4uzd_done.sol\":3333:3344  task.status */\n      0x03\n      add\n      0x00\n      swap1\n      sload\n      swap1\n      0x0100\n      exp\n      swap1\n      div\n      0xff\n      and\n        /* \"4uzd_done.sol\":3333:3365  task.status == Status.InProgress */\n      0x04\n      dup2\n      gt\n      iszero\n      tag_74\n      jumpi\n      tag_75\n      tag_50\n      jump\t// in\n    tag_75:\n    tag_74:\n      eq\n        /* \"4uzd_done.sol\":3303:3365  task.status == Status.Open || task.status == Status.InProgress */\n    tag_71:\n        /* \"4uzd_done.sol\":3281:3417  require(... */\n      tag_76\n      jumpi\n      mload(0x40)\n      0x08c379a000000000000000000000000000000000000000000000000000000000\n      dup2\n      mstore\n      0x04\n      add\n      tag_77\n      swap1\n      tag_78\n      jump\t// in\n    tag_77:\n      mload(0x40)\n      dup1\n      swap2\n      sub\n      swap1\n      revert\n    tag_76:\n        /* \"4uzd_done.sol\":3444:3460  Status.Cancelled */\n      0x04\n        /* \"4uzd_done.sol\":3430:3434  task */\n      dup2\n        /* \"4uzd_done.sol\":3430:3441  task.status */\n      0x03\n      add\n      0x00\n        /* \"4uzd_done.sol\":3430:3460  task.status = Status.Cancelled */\n      0x0100\n      exp\n      dup2\n      sload\n      dup2\n      0xff\n      mul\n      not\n      and\n      swap1\n      dup4\n      0x04\n      dup2\n      gt\n      iszero\n      tag_79\n      jumpi\n      tag_80\n      tag_50\n      jump\t// in\n    tag_80:\n    tag_79:\n      mul\n      or\n      swap1\n      sstore\n      pop\n        /* \"4uzd_done.sol\":3507:3519  bool success */\n      0x00\n        /* \"4uzd_done.sol\":3525:3529  task */\n      dup2\n        /* \"4uzd_done.sol\":3525:3536  task.client */\n      0x00\n      add\n      0x00\n      swap1\n      sload\n      swap1\n      0x0100\n      exp\n      swap1\n      div\n      0xffffffffffffffffffffffffffffffffffffffff\n      and\n        /* \"4uzd_done.sol\":3525:3541  task.client.call */\n      0xffffffffffffffffffffffffffffffffffffffff\n      and\n        /* \"4uzd_done.sol\":3549:3553  task */\n      dup3\n        /* \"4uzd_done.sol\":3549:3561  task.payment */\n      0x02\n      add\n      sload\n        /* \"4uzd_done.sol\":3525:3566  task.client.call{value: task.payment}(\"\") */\n      mload(0x40)\n      tag_81\n      swap1\n      tag_82\n      jump\t// in\n    tag_81:\n      0x00\n      mload(0x40)\n      dup1\n      dup4\n      sub\n      dup2\n      dup6\n      dup8\n      gas\n      call\n      swap3\n      pop\n      pop\n      pop\n      returndatasize\n      dup1\n      0x00\n      dup2\n      eq\n      tag_85\n      jumpi\n      mload(0x40)\n      swap2\n      pop\n      and(add(returndatasize, 0x3f), not(0x1f))\n      dup3\n      add\n      0x40\n      mstore\n      returndatasize\n      dup3\n      mstore\n      returndatasize\n      0x00\n      0x20\n      dup5\n      add\n      returndatacopy\n      jump(tag_84)\n    tag_85:\n      0x60\n      swap2\n      pop\n    tag_84:\n      pop\n        /* \"4uzd_done.sol\":3506:3566  (bool success, ) = task.client.call{value: task.payment}(\"\") */\n      pop\n      swap1\n      pop\n        /* \"4uzd_done.sol\":3585:3592  success */\n      dup1\n        /* \"4uzd_done.sol\":3577:3610  require(success, \"Refund failed\") */\n      tag_86\n      jumpi\n      mload(0x40)\n      0x08c379a000000000000000000000000000000000000000000000000000000000\n      dup2\n      mstore\n      0x04\n      add\n      tag_87\n      swap1\n      tag_88\n      jump\t// in\n    tag_87:\n      mload(0x40)\n      dup1\n      swap2\n      sub\n      swap1\n      revert\n    tag_86:\n        /* \"4uzd_done.sol\":3651:3661  msg.sender */\n      caller\n        /* \"4uzd_done.sol\":3628:3662  TaskCancelled(_taskId, msg.sender) */\n      0xffffffffffffffffffffffffffffffffffffffff\n      and\n        /* \"4uzd_done.sol\":3642:3649  _taskId */\n      dup4\n        /* \"4uzd_done.sol\":3628:3662  TaskCancelled(_taskId, msg.sender) */\n      0x76be7f7b12bf790225259ca3b7ffb98f222f79af3c4c074e88e0c97af6f14025\n      mload(0x40)\n      mload(0x40)\n      dup1\n      swap2\n      sub\n      swap1\n      log3\n        /* \"4uzd_done.sol\":3066:3670  {... */\n      pop\n      pop\n        /* \"4uzd_done.sol\":3020:3670  function cancelTask(uint256 _taskId) external {... */\n      pop\n      jump\t// out\n        /* \"4uzd_done.sol\":564:601  mapping(uint256 => Task) public tasks */\n    tag_29:\n      mstore(0x20, 0x01)\n      dup1\n      0x00\n      mstore\n      keccak256(0x00, 0x40)\n      0x00\n      swap2\n      pop\n      swap1\n      pop\n      dup1\n      0x00\n      add\n      0x00\n      swap1\n      sload\n      swap1\n      0x0100\n      exp\n      swap1\n      div\n      0xffffffffffffffffffffffffffffffffffffffff\n      and\n      swap1\n      dup1\n      0x01\n      add\n      0x00\n      swap1\n      sload\n      swap1\n      0x0100\n      exp\n      swap1\n      div\n      0xffffffffffffffffffffffffffffffffffffffff\n      and\n      swap1\n      dup1\n      0x02\n      add\n      sload\n      swap1\n      dup1\n      0x03\n      add\n      0x00\n      swap1\n      sload\n      swap1\n      0x0100\n      exp\n      swap1\n      div\n      0xff\n      and\n      swap1\n      pop\n      dup5\n      jump\t// out\n        /* \"4uzd_done.sol\":2485:2960  function confirmAndPay(uint256 _taskId) external {... */\n    tag_35:\n        /* \"4uzd_done.sol\":2545:2562  Task storage task */\n      0x00\n        /* \"4uzd_done.sol\":2565:2570  tasks */\n      0x01\n        /* \"4uzd_done.sol\":2565:2579  tasks[_taskId] */\n      0x00\n        /* \"4uzd_done.sol\":2571:2578  _taskId */\n      dup4\n        /* \"4uzd_done.sol\":2565:2579  tasks[_taskId] */\n      dup2\n      mstore\n      0x20\n      add\n      swap1\n      dup2\n      mstore\n      0x20\n      add\n      0x00\n      keccak256\n        /* \"4uzd_done.sol\":2545:2579  Task storage task = tasks[_taskId] */\n      swap1\n      pop\n        /* \"4uzd_done.sol\":2615:2631  Status.Completed */\n      0x02\n        /* \"4uzd_done.sol\":2600:2631  task.status == Status.Completed */\n      0x04\n      dup2\n      gt\n      iszero\n      tag_90\n      jumpi\n      tag_91\n      tag_50\n      jump\t// in\n    tag_91:\n    tag_90:\n        /* \"4uzd_done.sol\":2600:2604  task */\n      dup2\n        /* \"4uzd_done.sol\":2600:2611  task.status */\n      0x03\n      add\n      0x00\n      swap1\n      sload\n      swap1\n      0x0100\n      exp\n      swap1\n      div\n      0xff\n      and\n        /* \"4uzd_done.sol\":2600:2631  task.status == Status.Completed */\n      0x04\n      dup2\n      gt\n      iszero\n      tag_92\n      jumpi\n      tag_93\n      tag_50\n      jump\t// in\n    tag_93:\n    tag_92:\n      eq\n        /* \"4uzd_done.sol\":2592:2654  require(task.status == Status.Completed, \"Task not completed\") */\n      tag_94\n      jumpi\n      mload(0x40)\n      0x08c379a000000000000000000000000000000000000000000000000000000000\n      dup2\n      mstore\n      0x04\n      add\n      tag_95\n      swap1\n      tag_96\n      jump\t// in\n    tag_95:\n      mload(0x40)\n      dup1\n      swap2\n      sub\n      swap1\n      revert\n    tag_94:\n        /* \"4uzd_done.sol\":2687:2691  task */\n      dup1\n        /* \"4uzd_done.sol\":2687:2698  task.client */\n      0x00\n      add\n      0x00\n      swap1\n      sload\n      swap1\n      0x0100\n      exp\n      swap1\n      div\n      0xffffffffffffffffffffffffffffffffffffffff\n      and\n        /* \"4uzd_done.sol\":2673:2698  msg.sender == task.client */\n      0xffffffffffffffffffffffffffffffffffffffff\n      and\n        /* \"4uzd_done.sol\":2673:2683  msg.sender */\n      caller\n        /* \"4uzd_done.sol\":2673:2698  msg.sender == task.client */\n      0xffffffffffffffffffffffffffffffffffffffff\n      and\n      eq\n        /* \"4uzd_done.sol\":2665:2726  require(msg.sender == task.client, \"Only client can confirm\") */\n      tag_97\n      jumpi\n      mload(0x40)\n      0x08c379a000000000000000000000000000000000000000000000000000000000\n      dup2\n      mstore\n      0x04\n      add\n      tag_98\n      swap1\n      tag_99\n      jump\t// in\n    tag_98:\n      mload(0x40)\n      dup1\n      swap2\n      sub\n      swap1\n      revert\n    tag_97:\n        /* \"4uzd_done.sol\":2753:2764  Status.Paid */\n      0x03\n        /* \"4uzd_done.sol\":2739:2743  task */\n      dup2\n        /* \"4uzd_done.sol\":2739:2750  task.status */\n      0x03\n      add\n      0x00\n        /* \"4uzd_done.sol\":2739:2764  task.status = Status.Paid */\n      0x0100\n      exp\n      dup2\n      sload\n      dup2\n      0xff\n      mul\n      not\n      and\n      swap1\n      dup4\n      0x04\n      dup2\n      gt\n      iszero\n      tag_100\n      jumpi\n      tag_101\n      tag_50\n      jump\t// in\n    tag_101:\n    tag_100:\n      mul\n      or\n      swap1\n      sstore\n      pop\n        /* \"4uzd_done.sol\":2778:2790  bool success */\n      0x00\n        /* \"4uzd_done.sol\":2796:2800  task */\n      dup2\n        /* \"4uzd_done.sol\":2796:2811  task.freelancer */\n      0x01\n      add\n      0x00\n      swap1\n      sload\n      swap1\n      0x0100\n      exp\n      swap1\n      div\n      0xffffffffffffffffffffffffffffffffffffffff\n      and\n        /* \"4uzd_done.sol\":2796:2816  task.freelancer.call */\n      0xffffffffffffffffffffffffffffffffffffffff\n      and\n        /* \"4uzd_done.sol\":2824:2828  task */\n      dup3\n        /* \"4uzd_done.sol\":2824:2836  task.payment */\n      0x02\n      add\n      sload\n        /* \"4uzd_done.sol\":2796:2841  task.freelancer.call{value: task.payment}(\"\") */\n      mload(0x40)\n      tag_102\n      swap1\n      tag_82\n      jump\t// in\n    tag_102:\n      0x00\n      mload(0x40)\n      dup1\n      dup4\n      sub\n      dup2\n      dup6\n      dup8\n      gas\n      call\n      swap3\n      pop\n      pop\n      pop\n      returndatasize\n      dup1\n      0x00\n      dup2\n      eq\n      tag_105\n      jumpi\n      mload(0x40)\n      swap2\n      pop\n      and(add(returndatasize, 0x3f), not(0x1f))\n      dup3\n      add\n      0x40\n      mstore\n      returndatasize\n      dup3\n      mstore\n      returndatasize\n      0x00\n      0x20\n      dup5\n      add\n      returndatacopy\n      jump(tag_104)\n    tag_105:\n      0x60\n      swap2\n      pop\n    tag_104:\n      pop\n        /* \"4uzd_done.sol\":2777:2841  (bool success, ) = task.freelancer.call{value: task.payment}(\"\") */\n      pop\n      swap1\n      pop\n        /* \"4uzd_done.sol\":2860:2867  success */\n      dup1\n        /* \"4uzd_done.sol\":2852:2886  require(success, \"Payment failed\") */\n      tag_106\n      jumpi\n      mload(0x40)\n      0x08c379a000000000000000000000000000000000000000000000000000000000\n      dup2\n      mstore\n      0x04\n      add\n      tag_107\n      swap1\n      tag_108\n      jump\t// in\n    tag_107:\n      mload(0x40)\n      dup1\n      swap2\n      sub\n      swap1\n      revert\n    tag_106:\n        /* \"4uzd_done.sol\":2922:2926  task */\n      dup2\n        /* \"4uzd_done.sol\":2922:2937  task.freelancer */\n      0x01\n      add\n      0x00\n      swap1\n      sload\n      swap1\n      0x0100\n      exp\n      swap1\n      div\n      0xffffffffffffffffffffffffffffffffffffffff\n      and\n        /* \"4uzd_done.sol\":2904:2952  TaskPaid(_taskId, task.freelancer, task.payment) */\n      0xffffffffffffffffffffffffffffffffffffffff\n      and\n        /* \"4uzd_done.sol\":2913:2920  _taskId */\n      dup4\n        /* \"4uzd_done.sol\":2904:2952  TaskPaid(_taskId, task.freelancer, task.payment) */\n      0xa07faadda36641e27d06e326154d794c6c68f33a649da404fc368078c66d4beb\n        /* \"4uzd_done.sol\":2939:2943  task */\n      dup5\n        /* \"4uzd_done.sol\":2939:2951  task.payment */\n      0x02\n      add\n      sload\n        /* \"4uzd_done.sol\":2904:2952  TaskPaid(_taskId, task.freelancer, task.payment) */\n      mload(0x40)\n      tag_109\n      swap2\n      swap1\n      tag_42\n      jump\t// in\n    tag_109:\n      mload(0x40)\n      dup1\n      swap2\n      sub\n      swap1\n      log3\n        /* \"4uzd_done.sol\":2534:2960  {... */\n      pop\n      pop\n        /* \"4uzd_done.sol\":2485:2960  function confirmAndPay(uint256 _taskId) external {... */\n      pop\n      jump\t// out\n        /* \"4uzd_done.sol\":1186:1591  function createTask() external payable {... */\n    tag_37:\n        /* \"4uzd_done.sol\":1256:1257  0 */\n      0x00\n        /* \"4uzd_done.sol\":1244:1253  msg.value */\n      callvalue\n        /* \"4uzd_done.sol\":1244:1257  msg.value > 0 */\n      gt\n        /* \"4uzd_done.sol\":1236:1292  require(msg.value > 0, \"Payment must be greater than 0\") */\n      tag_111\n      jumpi\n      mload(0x40)\n      0x08c379a000000000000000000000000000000000000000000000000000000000\n      dup2\n      mstore\n      0x04\n      add\n      tag_112\n      swap1\n      tag_113\n      jump\t// in\n    tag_112:\n      mload(0x40)\n      dup1\n      swap2\n      sub\n      swap1\n      revert\n    tag_111:\n        /* \"4uzd_done.sol\":1305:1314  taskCount */\n      0x00\n      0x00\n        /* \"4uzd_done.sol\":1305:1316  taskCount++ */\n      dup2\n      sload\n      dup1\n      swap3\n      swap2\n      swap1\n      tag_114\n      swap1\n      tag_115\n      jump\t// in\n    tag_114:\n      swap2\n      swap1\n      pop\n      sstore\n      pop\n        /* \"4uzd_done.sol\":1348:1520  Task({... */\n      mload(0x40)\n      dup1\n      0x80\n      add\n      0x40\n      mstore\n      dup1\n        /* \"4uzd_done.sol\":1384:1394  msg.sender */\n      caller\n        /* \"4uzd_done.sol\":1348:1520  Task({... */\n      0xffffffffffffffffffffffffffffffffffffffff\n      and\n      dup2\n      mstore\n      0x20\n      add\n        /* \"4uzd_done.sol\":1438:1439  0 */\n      0x00\n        /* \"4uzd_done.sol\":1348:1520  Task({... */\n      0xffffffffffffffffffffffffffffffffffffffff\n      and\n      dup2\n      mstore\n      0x20\n      add\n        /* \"4uzd_done.sol\":1465:1474  msg.value */\n      callvalue\n        /* \"4uzd_done.sol\":1348:1520  Task({... */\n      dup2\n      mstore\n      0x20\n      add\n        /* \"4uzd_done.sol\":1497:1508  Status.Open */\n      0x00\n        /* \"4uzd_done.sol\":1348:1520  Task({... */\n      0x04\n      dup2\n      gt\n      iszero\n      tag_116\n      jumpi\n      tag_117\n      tag_50\n      jump\t// in\n    tag_117:\n    tag_116:\n      dup2\n      mstore\n      pop\n        /* \"4uzd_done.sol\":1329:1334  tasks */\n      0x01\n        /* \"4uzd_done.sol\":1329:1345  tasks[taskCount] */\n      0x00\n        /* \"4uzd_done.sol\":1335:1344  taskCount */\n      sload(0x00)\n        /* \"4uzd_done.sol\":1329:1345  tasks[taskCount] */\n      dup2\n      mstore\n      0x20\n      add\n      swap1\n      dup2\n      mstore\n      0x20\n      add\n      0x00\n      keccak256\n        /* \"4uzd_done.sol\":1329:1520  tasks[taskCount] = Task({... */\n      0x00\n      dup3\n      add\n      mload\n      dup2\n      0x00\n      add\n      exp(0x0100, 0x00)\n      dup2\n      sload\n      dup2\n      0xffffffffffffffffffffffffffffffffffffffff\n      mul\n      not\n      and\n      swap1\n      dup4\n      0xffffffffffffffffffffffffffffffffffffffff\n      and\n      mul\n      or\n      swap1\n      sstore\n      pop\n      0x20\n      dup3\n      add\n      mload\n      dup2\n      0x01\n      add\n      exp(0x0100, 0x00)\n      dup2\n      sload\n      dup2\n      0xffffffffffffffffffffffffffffffffffffffff\n      mul\n      not\n      and\n      swap1\n      dup4\n      0xffffffffffffffffffffffffffffffffffffffff\n      and\n      mul\n      or\n      swap1\n      sstore\n      pop\n      0x40\n      dup3\n      add\n      mload\n      dup2\n      0x02\n      add\n      sstore\n      0x60\n      dup3\n      add\n      mload\n      dup2\n      0x03\n      add\n      exp(0x0100, 0x00)\n      dup2\n      sload\n      dup2\n      0xff\n      mul\n      not\n      and\n      swap1\n      dup4\n      0x04\n      dup2\n      gt\n      iszero\n      tag_118\n      jumpi\n      tag_119\n      tag_50\n      jump\t// in\n    tag_119:\n    tag_118:\n      mul\n      or\n      swap1\n      sstore\n      pop\n      swap1\n      pop\n      pop\n        /* \"4uzd_done.sol\":1561:1571  msg.sender */\n      caller\n        /* \"4uzd_done.sol\":1538:1583  TaskCreated(taskCount, msg.sender, msg.value) */\n      0xffffffffffffffffffffffffffffffffffffffff\n      and\n        /* \"4uzd_done.sol\":1550:1559  taskCount */\n      sload(0x00)\n        /* \"4uzd_done.sol\":1538:1583  TaskCreated(taskCount, msg.sender, msg.value) */\n      0x6cf53aa7292e664152c2ea948c3b3c95d4b05c36daeb2626d0293473c4a4a153\n        /* \"4uzd_done.sol\":1573:1582  msg.value */\n      callvalue\n        /* \"4uzd_done.sol\":1538:1583  TaskCreated(taskCount, msg.sender, msg.value) */\n      mload(0x40)\n      tag_120\n      swap2\n      swap1\n      tag_42\n      jump\t// in\n    tag_120:\n      mload(0x40)\n      dup1\n      swap2\n      sub\n      swap1\n      log3\n        /* \"4uzd_done.sol\":1186:1591  function createTask() external payable {... */\n      jump\t// out\n        /* \"4uzd_done.sol\":533:557  uint256 public taskCount */\n    tag_40:\n      sload(0x00)\n      dup2\n      jump\t// out\n        /* \"4uzd_done.sol\":2082:2426  function markCompleted(uint256 _taskId) external {... */\n    tag_46:\n        /* \"4uzd_done.sol\":2142:2159  Task storage task */\n      0x00\n        /* \"4uzd_done.sol\":2162:2167  tasks */\n      0x01\n        /* \"4uzd_done.sol\":2162:2176  tasks[_taskId] */\n      0x00\n        /* \"4uzd_done.sol\":2168:2175  _taskId */\n      dup4\n        /* \"4uzd_done.sol\":2162:2176  tasks[_taskId] */\n      dup2\n      mstore\n      0x20\n      add\n      swap1\n      dup2\n      mstore\n      0x20\n      add\n      0x00\n      keccak256\n        /* \"4uzd_done.sol\":2142:2176  Task storage task = tasks[_taskId] */\n      swap1\n      pop\n        /* \"4uzd_done.sol\":2212:2229  Status.InProgress */\n      0x01\n        /* \"4uzd_done.sol\":2197:2229  task.status == Status.InProgress */\n      0x04\n      dup2\n      gt\n      iszero\n      tag_122\n      jumpi\n      tag_123\n      tag_50\n      jump\t// in\n    tag_123:\n    tag_122:\n        /* \"4uzd_done.sol\":2197:2201  task */\n      dup2\n        /* \"4uzd_done.sol\":2197:2208  task.status */\n      0x03\n      add\n      0x00\n      swap1\n      sload\n      swap1\n      0x0100\n      exp\n      swap1\n      div\n      0xff\n      and\n        /* \"4uzd_done.sol\":2197:2229  task.status == Status.InProgress */\n      0x04\n      dup2\n      gt\n      iszero\n      tag_124\n      jumpi\n      tag_125\n      tag_50\n      jump\t// in\n    tag_125:\n    tag_124:\n      eq\n        /* \"4uzd_done.sol\":2189:2254  require(task.status == Status.InProgress, \"Task not in progress\") */\n      tag_126\n      jumpi\n      mload(0x40)\n      0x08c379a000000000000000000000000000000000000000000000000000000000\n      dup2\n      mstore\n      0x04\n      add\n      tag_127\n      swap1\n      tag_128\n      jump\t// in\n    tag_127:\n      mload(0x40)\n      dup1\n      swap2\n      sub\n      swap1\n      revert\n    tag_126:\n        /* \"4uzd_done.sol\":2287:2291  task */\n      dup1\n        /* \"4uzd_done.sol\":2287:2302  task.freelancer */\n      0x01\n      add\n      0x00\n      swap1\n      sload\n      swap1\n      0x0100\n      exp\n      swap1\n      div\n      0xffffffffffffffffffffffffffffffffffffffff\n      and\n        /* \"4uzd_done.sol\":2273:2302  msg.sender == task.freelancer */\n      0xffffffffffffffffffffffffffffffffffffffff\n      and\n        /* \"4uzd_done.sol\":2273:2283  msg.sender */\n      caller\n        /* \"4uzd_done.sol\":2273:2302  msg.sender == task.freelancer */\n      0xffffffffffffffffffffffffffffffffffffffff\n      and\n      eq\n        /* \"4uzd_done.sol\":2265:2335  require(msg.sender == task.freelancer, \"Only freelancer can complete\") */\n      tag_129\n      jumpi\n      mload(0x40)\n      0x08c379a000000000000000000000000000000000000000000000000000000000\n      dup2\n      mstore\n      0x04\n      add\n      tag_130\n      swap1\n      tag_131\n      jump\t// in\n    tag_130:\n      mload(0x40)\n      dup1\n      swap2\n      sub\n      swap1\n      revert\n    tag_129:\n        /* \"4uzd_done.sol\":2362:2378  Status.Completed */\n      0x02\n        /* \"4uzd_done.sol\":2348:2352  task */\n      dup2\n        /* \"4uzd_done.sol\":2348:2359  task.status */\n      0x03\n      add\n      0x00\n        /* \"4uzd_done.sol\":2348:2378  task.status = Status.Completed */\n      0x0100\n      exp\n      dup2\n      sload\n      dup2\n      0xff\n      mul\n      not\n      and\n      swap1\n      dup4\n      0x04\n      dup2\n      gt\n      iszero\n      tag_132\n      jumpi\n      tag_133\n      tag_50\n      jump\t// in\n    tag_133:\n    tag_132:\n      mul\n      or\n      swap1\n      sstore\n      pop\n        /* \"4uzd_done.sol\":2410:2417  _taskId */\n      dup2\n        /* \"4uzd_done.sol\":2396:2418  TaskCompleted(_taskId) */\n      0xc1fa7142cfb933d0855114a3bffde296944c30b727f297c14d0db4d553d3a5c7\n      mload(0x40)\n      mload(0x40)\n      dup1\n      swap2\n      sub\n      swap1\n      log2\n        /* \"4uzd_done.sol\":2131:2426  {... */\n      pop\n        /* \"4uzd_done.sol\":2082:2426  function markCompleted(uint256 _taskId) external {... */\n      pop\n      jump\t// out\n        /* \"#utility.yul\":88:205   */\n    tag_135:\n        /* \"#utility.yul\":197:198   */\n      0x00\n        /* \"#utility.yul\":194:195   */\n      0x00\n        /* \"#utility.yul\":187:199   */\n      revert\n        /* \"#utility.yul\":334:411   */\n    tag_137:\n        /* \"#utility.yul\":371:378   */\n      0x00\n        /* \"#utility.yul\":400:405   */\n      dup2\n        /* \"#utility.yul\":389:405   */\n      swap1\n      pop\n        /* \"#utility.yul\":334:411   */\n      swap2\n      swap1\n      pop\n      jump\t// out\n        /* \"#utility.yul\":417:539   */\n    tag_138:\n        /* \"#utility.yul\":490:514   */\n      tag_183\n        /* \"#utility.yul\":508:513   */\n      dup2\n        /* \"#utility.yul\":490:514   */\n      tag_137\n      jump\t// in\n    tag_183:\n        /* \"#utility.yul\":483:488   */\n      dup2\n        /* \"#utility.yul\":480:515   */\n      eq\n        /* \"#utility.yul\":470:533   */\n      tag_184\n      jumpi\n        /* \"#utility.yul\":529:530   */\n      0x00\n        /* \"#utility.yul\":526:527   */\n      0x00\n        /* \"#utility.yul\":519:531   */\n      revert\n        /* \"#utility.yul\":470:533   */\n    tag_184:\n        /* \"#utility.yul\":417:539   */\n      pop\n      jump\t// out\n        /* \"#utility.yul\":545:684   */\n    tag_139:\n        /* \"#utility.yul\":591:596   */\n      0x00\n        /* \"#utility.yul\":629:635   */\n      dup2\n        /* \"#utility.yul\":616:636   */\n      calldataload\n        /* \"#utility.yul\":607:636   */\n      swap1\n      pop\n        /* \"#utility.yul\":645:678   */\n      tag_186\n        /* \"#utility.yul\":672:677   */\n      dup2\n        /* \"#utility.yul\":645:678   */\n      tag_138\n      jump\t// in\n    tag_186:\n        /* \"#utility.yul\":545:684   */\n      swap3\n      swap2\n      pop\n      pop\n      jump\t// out\n        /* \"#utility.yul\":690:1019   */\n    tag_14:\n        /* \"#utility.yul\":749:755   */\n      0x00\n        /* \"#utility.yul\":798:800   */\n      0x20\n        /* \"#utility.yul\":786:795   */\n      dup3\n        /* \"#utility.yul\":777:784   */\n      dup5\n        /* \"#utility.yul\":773:796   */\n      sub\n        /* \"#utility.yul\":769:801   */\n      slt\n        /* \"#utility.yul\":766:885   */\n      iszero\n      tag_188\n      jumpi\n        /* \"#utility.yul\":804:883   */\n      tag_189\n      tag_135\n      jump\t// in\n    tag_189:\n        /* \"#utility.yul\":766:885   */\n    tag_188:\n        /* \"#utility.yul\":924:925   */\n      0x00\n        /* \"#utility.yul\":949:1002   */\n      tag_190\n        /* \"#utility.yul\":994:1001   */\n      dup5\n        /* \"#utility.yul\":985:991   */\n      dup3\n        /* \"#utility.yul\":974:983   */\n      dup6\n        /* \"#utility.yul\":970:992   */\n      add\n        /* \"#utility.yul\":949:1002   */\n      tag_139\n      jump\t// in\n    tag_190:\n        /* \"#utility.yul\":939:1002   */\n      swap2\n      pop\n        /* \"#utility.yul\":895:1012   */\n      pop\n        /* \"#utility.yul\":690:1019   */\n      swap3\n      swap2\n      pop\n      pop\n      jump\t// out\n        /* \"#utility.yul\":1025:1151   */\n    tag_140:\n        /* \"#utility.yul\":1062:1069   */\n      0x00\n        /* \"#utility.yul\":1102:1144   */\n      0xffffffffffffffffffffffffffffffffffffffff\n        /* \"#utility.yul\":1095:1100   */\n      dup3\n        /* \"#utility.yul\":1091:1145   */\n      and\n        /* \"#utility.yul\":1080:1145   */\n      swap1\n      pop\n        /* \"#utility.yul\":1025:1151   */\n      swap2\n      swap1\n      pop\n      jump\t// out\n        /* \"#utility.yul\":1157:1253   */\n    tag_141:\n        /* \"#utility.yul\":1194:1201   */\n      0x00\n        /* \"#utility.yul\":1223:1247   */\n      tag_193\n        /* \"#utility.yul\":1241:1246   */\n      dup3\n        /* \"#utility.yul\":1223:1247   */\n      tag_140\n      jump\t// in\n    tag_193:\n        /* \"#utility.yul\":1212:1247   */\n      swap1\n      pop\n        /* \"#utility.yul\":1157:1253   */\n      swap2\n      swap1\n      pop\n      jump\t// out\n        /* \"#utility.yul\":1259:1377   */\n    tag_142:\n        /* \"#utility.yul\":1346:1370   */\n      tag_195\n        /* \"#utility.yul\":1364:1369   */\n      dup2\n        /* \"#utility.yul\":1346:1370   */\n      tag_141\n      jump\t// in\n    tag_195:\n        /* \"#utility.yul\":1341:1344   */\n      dup3\n        /* \"#utility.yul\":1334:1371   */\n      mstore\n        /* \"#utility.yul\":1259:1377   */\n      pop\n      pop\n      jump\t// out\n        /* \"#utility.yul\":1383:1501   */\n    tag_143:\n        /* \"#utility.yul\":1470:1494   */\n      tag_197\n        /* \"#utility.yul\":1488:1493   */\n      dup2\n        /* \"#utility.yul\":1470:1494   */\n      tag_137\n      jump\t// in\n    tag_197:\n        /* \"#utility.yul\":1465:1468   */\n      dup3\n        /* \"#utility.yul\":1458:1495   */\n      mstore\n        /* \"#utility.yul\":1383:1501   */\n      pop\n      pop\n      jump\t// out\n        /* \"#utility.yul\":1507:1687   */\n    tag_50:\n        /* \"#utility.yul\":1555:1632   */\n      0x4e487b7100000000000000000000000000000000000000000000000000000000\n        /* \"#utility.yul\":1552:1553   */\n      0x00\n        /* \"#utility.yul\":1545:1633   */\n      mstore\n        /* \"#utility.yul\":1652:1656   */\n      0x21\n        /* \"#utility.yul\":1649:1650   */\n      0x04\n        /* \"#utility.yul\":1642:1657   */\n      mstore\n        /* \"#utility.yul\":1676:1680   */\n      0x24\n        /* \"#utility.yul\":1673:1674   */\n      0x00\n        /* \"#utility.yul\":1666:1681   */\n      revert\n        /* \"#utility.yul\":1693:1806   */\n    tag_144:\n        /* \"#utility.yul\":1774:1775   */\n      0x05\n        /* \"#utility.yul\":1767:1772   */\n      dup2\n        /* \"#utility.yul\":1764:1776   */\n      lt\n        /* \"#utility.yul\":1754:1800   */\n      tag_200\n      jumpi\n        /* \"#utility.yul\":1780:1798   */\n      tag_201\n      tag_50\n      jump\t// in\n    tag_201:\n        /* \"#utility.yul\":1754:1800   */\n    tag_200:\n        /* \"#utility.yul\":1693:1806   */\n      pop\n      jump\t// out\n        /* \"#utility.yul\":1812:1939   */\n    tag_145:\n        /* \"#utility.yul\":1857:1864   */\n      0x00\n        /* \"#utility.yul\":1886:1891   */\n      dup2\n        /* \"#utility.yul\":1875:1891   */\n      swap1\n      pop\n        /* \"#utility.yul\":1892:1933   */\n      tag_203\n        /* \"#utility.yul\":1927:1932   */\n      dup3\n        /* \"#utility.yul\":1892:1933   */\n      tag_144\n      jump\t// in\n    tag_203:\n        /* \"#utility.yul\":1812:1939   */\n      swap2\n      swap1\n      pop\n      jump\t// out\n        /* \"#utility.yul\":1945:2072   */\n    tag_146:\n        /* \"#utility.yul\":2001:2010   */\n      0x00\n        /* \"#utility.yul\":2034:2066   */\n      tag_205\n        /* \"#utility.yul\":2060:2065   */\n      dup3\n        /* \"#utility.yul\":2034:2066   */\n      tag_145\n      jump\t// in\n    tag_205:\n        /* \"#utility.yul\":2021:2066   */\n      swap1\n      pop\n        /* \"#utility.yul\":1945:2072   */\n      swap2\n      swap1\n      pop\n      jump\t// out\n        /* \"#utility.yul\":2078:2221   */\n    tag_147:\n        /* \"#utility.yul\":2171:2214   */\n      tag_207\n        /* \"#utility.yul\":2208:2213   */\n      dup2\n        /* \"#utility.yul\":2171:2214   */\n      tag_146\n      jump\t// in\n    tag_207:\n        /* \"#utility.yul\":2166:2169   */\n      dup3\n        /* \"#utility.yul\":2159:2215   */\n      mstore\n        /* \"#utility.yul\":2078:2221   */\n      pop\n      pop\n      jump\t// out\n        /* \"#utility.yul\":2227:2792   */\n    tag_21:\n        /* \"#utility.yul\":2410:2414   */\n      0x00\n        /* \"#utility.yul\":2448:2451   */\n      0x80\n        /* \"#utility.yul\":2437:2446   */\n      dup3\n        /* \"#utility.yul\":2433:2452   */\n      add\n        /* \"#utility.yul\":2425:2452   */\n      swap1\n      pop\n        /* \"#utility.yul\":2462:2533   */\n      tag_209\n        /* \"#utility.yul\":2530:2531   */\n      0x00\n        /* \"#utility.yul\":2519:2528   */\n      dup4\n        /* \"#utility.yul\":2515:2532   */\n      add\n        /* \"#utility.yul\":2506:2512   */\n      dup8\n        /* \"#utility.yul\":2462:2533   */\n      tag_142\n      jump\t// in\n    tag_209:\n        /* \"#utility.yul\":2543:2615   */\n      tag_210\n        /* \"#utility.yul\":2611:2613   */\n      0x20\n        /* \"#utility.yul\":2600:2609   */\n      dup4\n        /* \"#utility.yul\":2596:2614   */\n      add\n        /* \"#utility.yul\":2587:2593   */\n      dup7\n        /* \"#utility.yul\":2543:2615   */\n      tag_142\n      jump\t// in\n    tag_210:\n        /* \"#utility.yul\":2625:2697   */\n      tag_211\n        /* \"#utility.yul\":2693:2695   */\n      0x40\n        /* \"#utility.yul\":2682:2691   */\n      dup4\n        /* \"#utility.yul\":2678:2696   */\n      add\n        /* \"#utility.yul\":2669:2675   */\n      dup6\n        /* \"#utility.yul\":2625:2697   */\n      tag_143\n      jump\t// in\n    tag_211:\n        /* \"#utility.yul\":2707:2785   */\n      tag_212\n        /* \"#utility.yul\":2781:2783   */\n      0x60\n        /* \"#utility.yul\":2770:2779   */\n      dup4\n        /* \"#utility.yul\":2766:2784   */\n      add\n        /* \"#utility.yul\":2757:2763   */\n      dup5\n        /* \"#utility.yul\":2707:2785   */\n      tag_147\n      jump\t// in\n    tag_212:\n        /* \"#utility.yul\":2227:2792   */\n      swap6\n      swap5\n      pop\n      pop\n      pop\n      pop\n      pop\n      jump\t// out\n        /* \"#utility.yul\":2798:2902   */\n    tag_148:\n        /* \"#utility.yul\":2843:2850   */\n      0x00\n        /* \"#utility.yul\":2872:2896   */\n      tag_214\n        /* \"#utility.yul\":2890:2895   */\n      dup3\n        /* \"#utility.yul\":2872:2896   */\n      tag_140\n      jump\t// in\n    tag_214:\n        /* \"#utility.yul\":2861:2896   */\n      swap1\n      pop\n        /* \"#utility.yul\":2798:2902   */\n      swap2\n      swap1\n      pop\n      jump\t// out\n        /* \"#utility.yul\":2908:3050   */\n    tag_149:\n        /* \"#utility.yul\":3011:3043   */\n      tag_216\n        /* \"#utility.yul\":3037:3042   */\n      dup2\n        /* \"#utility.yul\":3011:3043   */\n      tag_148\n      jump\t// in\n    tag_216:\n        /* \"#utility.yul\":3006:3009   */\n      dup3\n        /* \"#utility.yul\":2999:3044   */\n      mstore\n        /* \"#utility.yul\":2908:3050   */\n      pop\n      pop\n      jump\t// out\n        /* \"#utility.yul\":3056:3685   */\n    tag_31:\n        /* \"#utility.yul\":3271:3275   */\n      0x00\n        /* \"#utility.yul\":3309:3312   */\n      0x80\n        /* \"#utility.yul\":3298:3307   */\n      dup3\n        /* \"#utility.yul\":3294:3313   */\n      add\n        /* \"#utility.yul\":3286:3313   */\n      swap1\n      pop\n        /* \"#utility.yul\":3323:3410   */\n      tag_218\n        /* \"#utility.yul\":3407:3408   */\n      0x00\n        /* \"#utility.yul\":3396:3405   */\n      dup4\n        /* \"#utility.yul\":3392:3409   */\n      add\n        /* \"#utility.yul\":3383:3389   */\n      dup8\n        /* \"#utility.yul\":3323:3410   */\n      tag_149\n      jump\t// in\n    tag_218:\n        /* \"#utility.yul\":3420:3508   */\n      tag_219\n        /* \"#utility.yul\":3504:3506   */\n      0x20\n        /* \"#utility.yul\":3493:3502   */\n      dup4\n        /* \"#utility.yul\":3489:3507   */\n      add\n        /* \"#utility.yul\":3480:3486   */\n      dup7\n        /* \"#utility.yul\":3420:3508   */\n      tag_149\n      jump\t// in\n    tag_219:\n        /* \"#utility.yul\":3518:3590   */\n      tag_220\n        /* \"#utility.yul\":3586:3588   */\n      0x40\n        /* \"#utility.yul\":3575:3584   */\n      dup4\n        /* \"#utility.yul\":3571:3589   */\n      add\n        /* \"#utility.yul\":3562:3568   */\n      dup6\n        /* \"#utility.yul\":3518:3590   */\n      tag_143\n      jump\t// in\n    tag_220:\n        /* \"#utility.yul\":3600:3678   */\n      tag_221\n        /* \"#utility.yul\":3674:3676   */\n      0x60\n        /* \"#utility.yul\":3663:3672   */\n      dup4\n        /* \"#utility.yul\":3659:3677   */\n      add\n        /* \"#utility.yul\":3650:3656   */\n      dup5\n        /* \"#utility.yul\":3600:3678   */\n      tag_147\n      jump\t// in\n    tag_221:\n        /* \"#utility.yul\":3056:3685   */\n      swap6\n      swap5\n      pop\n      pop\n      pop\n      pop\n      pop\n      jump\t// out\n        /* \"#utility.yul\":3691:3913   */\n    tag_42:\n        /* \"#utility.yul\":3784:3788   */\n      0x00\n        /* \"#utility.yul\":3822:3824   */\n      0x20\n        /* \"#utility.yul\":3811:3820   */\n      dup3\n        /* \"#utility.yul\":3807:3825   */\n      add\n        /* \"#utility.yul\":3799:3825   */\n      swap1\n      pop\n        /* \"#utility.yul\":3835:3906   */\n      tag_223\n        /* \"#utility.yul\":3903:3904   */\n      0x00\n        /* \"#utility.yul\":3892:3901   */\n      dup4\n        /* \"#utility.yul\":3888:3905   */\n      add\n        /* \"#utility.yul\":3879:3885   */\n      dup5\n        /* \"#utility.yul\":3835:3906   */\n      tag_143\n      jump\t// in\n    tag_223:\n        /* \"#utility.yul\":3691:3913   */\n      swap3\n      swap2\n      pop\n      pop\n      jump\t// out\n        /* \"#utility.yul\":3919:4088   */\n    tag_150:\n        /* \"#utility.yul\":4003:4014   */\n      0x00\n        /* \"#utility.yul\":4037:4043   */\n      dup3\n        /* \"#utility.yul\":4032:4035   */\n      dup3\n        /* \"#utility.yul\":4025:4044   */\n      mstore\n        /* \"#utility.yul\":4077:4081   */\n      0x20\n        /* \"#utility.yul\":4072:4075   */\n      dup3\n        /* \"#utility.yul\":4068:4082   */\n      add\n        /* \"#utility.yul\":4053:4082   */\n      swap1\n      pop\n        /* \"#utility.yul\":3919:4088   */\n      swap3\n      swap2\n      pop\n      pop\n      jump\t// out\n        /* \"#utility.yul\":4094:4260   */\n    tag_151:\n        /* \"#utility.yul\":4234:4252   */\n      0x5461736b206973206e6f74206f70656e00000000000000000000000000000000\n        /* \"#utility.yul\":4230:4231   */\n      0x00\n        /* \"#utility.yul\":4222:4228   */\n      dup3\n        /* \"#utility.yul\":4218:4232   */\n      add\n        /* \"#utility.yul\":4211:4253   */\n      mstore\n        /* \"#utility.yul\":4094:4260   */\n      pop\n      jump\t// out\n        /* \"#utility.yul\":4266:4632   */\n    tag_152:\n        /* \"#utility.yul\":4408:4411   */\n      0x00\n        /* \"#utility.yul\":4429:4496   */\n      tag_227\n        /* \"#utility.yul\":4493:4495   */\n      0x10\n        /* \"#utility.yul\":4488:4491   */\n      dup4\n        /* \"#utility.yul\":4429:4496   */\n      tag_150\n      jump\t// in\n    tag_227:\n        /* \"#utility.yul\":4422:4496   */\n      swap2\n      pop\n        /* \"#utility.yul\":4505:4598   */\n      tag_228\n        /* \"#utility.yul\":4594:4597   */\n      dup3\n        /* \"#utility.yul\":4505:4598   */\n      tag_151\n      jump\t// in\n    tag_228:\n        /* \"#utility.yul\":4623:4625   */\n      0x20\n        /* \"#utility.yul\":4618:4621   */\n      dup3\n        /* \"#utility.yul\":4614:4626   */\n      add\n        /* \"#utility.yul\":4607:4626   */\n      swap1\n      pop\n        /* \"#utility.yul\":4266:4632   */\n      swap2\n      swap1\n      pop\n      jump\t// out\n        /* \"#utility.yul\":4638:5057   */\n    tag_55:\n        /* \"#utility.yul\":4804:4808   */\n      0x00\n        /* \"#utility.yul\":4842:4844   */\n      0x20\n        /* \"#utility.yul\":4831:4840   */\n      dup3\n        /* \"#utility.yul\":4827:4845   */\n      add\n        /* \"#utility.yul\":4819:4845   */\n      swap1\n      pop\n        /* \"#utility.yul\":4891:4900   */\n      dup2\n        /* \"#utility.yul\":4885:4889   */\n      dup2\n        /* \"#utility.yul\":4881:4901   */\n      sub\n        /* \"#utility.yul\":4877:4878   */\n      0x00\n        /* \"#utility.yul\":4866:4875   */\n      dup4\n        /* \"#utility.yul\":4862:4879   */\n      add\n        /* \"#utility.yul\":4855:4902   */\n      mstore\n        /* \"#utility.yul\":4919:5050   */\n      tag_230\n        /* \"#utility.yul\":5045:5049   */\n      dup2\n        /* \"#utility.yul\":4919:5050   */\n      tag_152\n      jump\t// in\n    tag_230:\n        /* \"#utility.yul\":4911:5050   */\n      swap1\n      pop\n        /* \"#utility.yul\":4638:5057   */\n      swap2\n      swap1\n      pop\n      jump\t// out\n        /* \"#utility.yul\":5063:5242   */\n    tag_153:\n        /* \"#utility.yul\":5203:5234   */\n      0x436c69656e742063616e6e6f7420616363657074206f776e207461736b000000\n        /* \"#utility.yul\":5199:5200   */\n      0x00\n        /* \"#utility.yul\":5191:5197   */\n      dup3\n        /* \"#utility.yul\":5187:5201   */\n      add\n        /* \"#utility.yul\":5180:5235   */\n      mstore\n        /* \"#utility.yul\":5063:5242   */\n      pop\n      jump\t// out\n        /* \"#utility.yul\":5248:5614   */\n    tag_154:\n        /* \"#utility.yul\":5390:5393   */\n      0x00\n        /* \"#utility.yul\":5411:5478   */\n      tag_233\n        /* \"#utility.yul\":5475:5477   */\n      0x1d\n        /* \"#utility.yul\":5470:5473   */\n      dup4\n        /* \"#utility.yul\":5411:5478   */\n      tag_150\n      jump\t// in\n    tag_233:\n        /* \"#utility.yul\":5404:5478   */\n      swap2\n      pop\n        /* \"#utility.yul\":5487:5580   */\n      tag_234\n        /* \"#utility.yul\":5576:5579   */\n      dup3\n        /* \"#utility.yul\":5487:5580   */\n      tag_153\n      jump\t// in\n    tag_234:\n        /* \"#utility.yul\":5605:5607   */\n      0x20\n        /* \"#utility.yul\":5600:5603   */\n      dup3\n        /* \"#utility.yul\":5596:5608   */\n      add\n        /* \"#utility.yul\":5589:5608   */\n      swap1\n      pop\n        /* \"#utility.yul\":5248:5614   */\n      swap2\n      swap1\n      pop\n      jump\t// out\n        /* \"#utility.yul\":5620:6039   */\n    tag_58:\n        /* \"#utility.yul\":5786:5790   */\n      0x00\n        /* \"#utility.yul\":5824:5826   */\n      0x20\n        /* \"#utility.yul\":5813:5822   */\n      dup3\n        /* \"#utility.yul\":5809:5827   */\n      add\n        /* \"#utility.yul\":5801:5827   */\n      swap1\n      pop\n        /* \"#utility.yul\":5873:5882   */\n      dup2\n        /* \"#utility.yul\":5867:5871   */\n      dup2\n        /* \"#utility.yul\":5863:5883   */\n      sub\n        /* \"#utility.yul\":5859:5860   */\n      0x00\n        /* \"#utility.yul\":5848:5857   */\n      dup4\n        /* \"#utility.yul\":5844:5861   */\n      add\n        /* \"#utility.yul\":5837:5884   */\n      mstore\n        /* \"#utility.yul\":5901:6032   */\n      tag_236\n        /* \"#utility.yul\":6027:6031   */\n      dup2\n        /* \"#utility.yul\":5901:6032   */\n      tag_154\n      jump\t// in\n    tag_236:\n        /* \"#utility.yul\":5893:6032   */\n      swap1\n      pop\n        /* \"#utility.yul\":5620:6039   */\n      swap2\n      swap1\n      pop\n      jump\t// out\n        /* \"#utility.yul\":6045:6268   */\n    tag_155:\n        /* \"#utility.yul\":6185:6219   */\n      0x4f6e6c7920636c69656e74206f7220667265656c616e6365722063616e206361\n        /* \"#utility.yul\":6181:6182   */\n      0x00\n        /* \"#utility.yul\":6173:6179   */\n      dup3\n        /* \"#utility.yul\":6169:6183   */\n      add\n        /* \"#utility.yul\":6162:6220   */\n      mstore\n        /* \"#utility.yul\":6254:6260   */\n      0x6e63656c00000000000000000000000000000000000000000000000000000000\n        /* \"#utility.yul\":6249:6251   */\n      0x20\n        /* \"#utility.yul\":6241:6247   */\n      dup3\n        /* \"#utility.yul\":6237:6252   */\n      add\n        /* \"#utility.yul\":6230:6261   */\n      mstore\n        /* \"#utility.yul\":6045:6268   */\n      pop\n      jump\t// out\n        /* \"#utility.yul\":6274:6640   */\n    tag_156:\n        /* \"#utility.yul\":6416:6419   */\n      0x00\n        /* \"#utility.yul\":6437:6504   */\n      tag_239\n        /* \"#utility.yul\":6501:6503   */\n      0x24\n        /* \"#utility.yul\":6496:6499   */\n      dup4\n        /* \"#utility.yul\":6437:6504   */\n      tag_150\n      jump\t// in\n    tag_239:\n        /* \"#utility.yul\":6430:6504   */\n      swap2\n      pop\n        /* \"#utility.yul\":6513:6606   */\n      tag_240\n        /* \"#utility.yul\":6602:6605   */\n      dup3\n        /* \"#utility.yul\":6513:6606   */\n      tag_155\n      jump\t// in\n    tag_240:\n        /* \"#utility.yul\":6631:6633   */\n      0x40\n        /* \"#utility.yul\":6626:6629   */\n      dup3\n        /* \"#utility.yul\":6622:6634   */\n      add\n        /* \"#utility.yul\":6615:6634   */\n      swap1\n      pop\n        /* \"#utility.yul\":6274:6640   */\n      swap2\n      swap1\n      pop\n      jump\t// out\n        /* \"#utility.yul\":6646:7065   */\n    tag_66:\n        /* \"#utility.yul\":6812:6816   */\n      0x00\n        /* \"#utility.yul\":6850:6852   */\n      0x20\n        /* \"#utility.yul\":6839:6848   */\n      dup3\n        /* \"#utility.yul\":6835:6853   */\n      add\n        /* \"#utility.yul\":6827:6853   */\n      swap1\n      pop\n        /* \"#utility.yul\":6899:6908   */\n      dup2\n        /* \"#utility.yul\":6893:6897   */\n      dup2\n        /* \"#utility.yul\":6889:6909   */\n      sub\n        /* \"#utility.yul\":6885:6886   */\n      0x00\n        /* \"#utility.yul\":6874:6883   */\n      dup4\n        /* \"#utility.yul\":6870:6887   */\n      add\n        /* \"#utility.yul\":6863:6910   */\n      mstore\n        /* \"#utility.yul\":6927:7058   */\n      tag_242\n        /* \"#utility.yul\":7053:7057   */\n      dup2\n        /* \"#utility.yul\":6927:7058   */\n      tag_156\n      jump\t// in\n    tag_242:\n        /* \"#utility.yul\":6919:7058   */\n      swap1\n      pop\n        /* \"#utility.yul\":6646:7065   */\n      swap2\n      swap1\n      pop\n      jump\t// out\n        /* \"#utility.yul\":7071:7245   */\n    tag_157:\n        /* \"#utility.yul\":7211:7237   */\n      0x5461736b2063616e6e6f742062652063616e63656c6c65640000000000000000\n        /* \"#utility.yul\":7207:7208   */\n      0x00\n        /* \"#utility.yul\":7199:7205   */\n      dup3\n        /* \"#utility.yul\":7195:7209   */\n      add\n        /* \"#utility.yul\":7188:7238   */\n      mstore\n        /* \"#utility.yul\":7071:7245   */\n      pop\n      jump\t// out\n        /* \"#utility.yul\":7251:7617   */\n    tag_158:\n        /* \"#utility.yul\":7393:7396   */\n      0x00\n        /* \"#utility.yul\":7414:7481   */\n      tag_245\n        /* \"#utility.yul\":7478:7480   */\n      0x18\n        /* \"#utility.yul\":7473:7476   */\n      dup4\n        /* \"#utility.yul\":7414:7481   */\n      tag_150\n      jump\t// in\n    tag_245:\n        /* \"#utility.yul\":7407:7481   */\n      swap2\n      pop\n        /* \"#utility.yul\":7490:7583   */\n      tag_246\n        /* \"#utility.yul\":7579:7582   */\n      dup3\n        /* \"#utility.yul\":7490:7583   */\n      tag_157\n      jump\t// in\n    tag_246:\n        /* \"#utility.yul\":7608:7610   */\n      0x20\n        /* \"#utility.yul\":7603:7606   */\n      dup3\n        /* \"#utility.yul\":7599:7611   */\n      add\n        /* \"#utility.yul\":7592:7611   */\n      swap1\n      pop\n        /* \"#utility.yul\":7251:7617   */\n      swap2\n      swap1\n      pop\n      jump\t// out\n        /* \"#utility.yul\":7623:8042   */\n    tag_78:\n        /* \"#utility.yul\":7789:7793   */\n      0x00\n        /* \"#utility.yul\":7827:7829   */\n      0x20\n        /* \"#utility.yul\":7816:7825   */\n      dup3\n        /* \"#utility.yul\":7812:7830   */\n      add\n        /* \"#utility.yul\":7804:7830   */\n      swap1\n      pop\n        /* \"#utility.yul\":7876:7885   */\n      dup2\n        /* \"#utility.yul\":7870:7874   */\n      dup2\n        /* \"#utility.yul\":7866:7886   */\n      sub\n        /* \"#utility.yul\":7862:7863   */\n      0x00\n        /* \"#utility.yul\":7851:7860   */\n      dup4\n        /* \"#utility.yul\":7847:7864   */\n      add\n        /* \"#utility.yul\":7840:7887   */\n      mstore\n        /* \"#utility.yul\":7904:8035   */\n      tag_248\n        /* \"#utility.yul\":8030:8034   */\n      dup2\n        /* \"#utility.yul\":7904:8035   */\n      tag_158\n      jump\t// in\n    tag_248:\n        /* \"#utility.yul\":7896:8035   */\n      swap1\n      pop\n        /* \"#utility.yul\":7623:8042   */\n      swap2\n      swap1\n      pop\n      jump\t// out\n        /* \"#utility.yul\":8048:8195   */\n    tag_159:\n        /* \"#utility.yul\":8149:8160   */\n      0x00\n        /* \"#utility.yul\":8186:8189   */\n      dup2\n        /* \"#utility.yul\":8171:8189   */\n      swap1\n      pop\n        /* \"#utility.yul\":8048:8195   */\n      swap3\n      swap2\n      pop\n      pop\n      jump\t// out\n        /* \"#utility.yul\":8201:8315   */\n    tag_160:\n      pop\n      jump\t// out\n        /* \"#utility.yul\":8321:8719   */\n    tag_161:\n        /* \"#utility.yul\":8480:8483   */\n      0x00\n        /* \"#utility.yul\":8501:8584   */\n      tag_252\n        /* \"#utility.yul\":8582:8583   */\n      0x00\n        /* \"#utility.yul\":8577:8580   */\n      dup4\n        /* \"#utility.yul\":8501:8584   */\n      tag_159\n      jump\t// in\n    tag_252:\n        /* \"#utility.yul\":8494:8584   */\n      swap2\n      pop\n        /* \"#utility.yul\":8593:8686   */\n      tag_253\n        /* \"#utility.yul\":8682:8685   */\n      dup3\n        /* \"#utility.yul\":8593:8686   */\n      tag_160\n      jump\t// in\n    tag_253:\n        /* \"#utility.yul\":8711:8712   */\n      0x00\n        /* \"#utility.yul\":8706:8709   */\n      dup3\n        /* \"#utility.yul\":8702:8713   */\n      add\n        /* \"#utility.yul\":8695:8713   */\n      swap1\n      pop\n        /* \"#utility.yul\":8321:8719   */\n      swap2\n      swap1\n      pop\n      jump\t// out\n        /* \"#utility.yul\":8725:9104   */\n    tag_82:\n        /* \"#utility.yul\":8909:8912   */\n      0x00\n        /* \"#utility.yul\":8931:9078   */\n      tag_255\n        /* \"#utility.yul\":9074:9077   */\n      dup3\n        /* \"#utility.yul\":8931:9078   */\n      tag_161\n      jump\t// in\n    tag_255:\n        /* \"#utility.yul\":8924:9078   */\n      swap2\n      pop\n        /* \"#utility.yul\":9095:9098   */\n      dup2\n        /* \"#utility.yul\":9088:9098   */\n      swap1\n      pop\n        /* \"#utility.yul\":8725:9104   */\n      swap2\n      swap1\n      pop\n      jump\t// out\n        /* \"#utility.yul\":9110:9273   */\n    tag_162:\n        /* \"#utility.yul\":9250:9265   */\n      0x526566756e64206661696c656400000000000000000000000000000000000000\n        /* \"#utility.yul\":9246:9247   */\n      0x00\n        /* \"#utility.yul\":9238:9244   */\n      dup3\n        /* \"#utility.yul\":9234:9248   */\n      add\n        /* \"#utility.yul\":9227:9266   */\n      mstore\n        /* \"#utility.yul\":9110:9273   */\n      pop\n      jump\t// out\n        /* \"#utility.yul\":9279:9645   */\n    tag_163:\n        /* \"#utility.yul\":9421:9424   */\n      0x00\n        /* \"#utility.yul\":9442:9509   */\n      tag_258\n        /* \"#utility.yul\":9506:9508   */\n      0x0d\n        /* \"#utility.yul\":9501:9504   */\n      dup4\n        /* \"#utility.yul\":9442:9509   */\n      tag_150\n      jump\t// in\n    tag_258:\n        /* \"#utility.yul\":9435:9509   */\n      swap2\n      pop\n        /* \"#utility.yul\":9518:9611   */\n      tag_259\n        /* \"#utility.yul\":9607:9610   */\n      dup3\n        /* \"#utility.yul\":9518:9611   */\n      tag_162\n      jump\t// in\n    tag_259:\n        /* \"#utility.yul\":9636:9638   */\n      0x20\n        /* \"#utility.yul\":9631:9634   */\n      dup3\n        /* \"#utility.yul\":9627:9639   */\n      add\n        /* \"#utility.yul\":9620:9639   */\n      swap1\n      pop\n        /* \"#utility.yul\":9279:9645   */\n      swap2\n      swap1\n      pop\n      jump\t// out\n        /* \"#utility.yul\":9651:10070   */\n    tag_88:\n        /* \"#utility.yul\":9817:9821   */\n      0x00\n        /* \"#utility.yul\":9855:9857   */\n      0x20\n        /* \"#utility.yul\":9844:9853   */\n      dup3\n        /* \"#utility.yul\":9840:9858   */\n      add\n        /* \"#utility.yul\":9832:9858   */\n      swap1\n      pop\n        /* \"#utility.yul\":9904:9913   */\n      dup2\n        /* \"#utility.yul\":9898:9902   */\n      dup2\n        /* \"#utility.yul\":9894:9914   */\n      sub\n        /* \"#utility.yul\":9890:9891   */\n      0x00\n        /* \"#utility.yul\":9879:9888   */\n      dup4\n        /* \"#utility.yul\":9875:9892   */\n      add\n        /* \"#utility.yul\":9868:9915   */\n      mstore\n        /* \"#utility.yul\":9932:10063   */\n      tag_261\n        /* \"#utility.yul\":10058:10062   */\n      dup2\n        /* \"#utility.yul\":9932:10063   */\n      tag_163\n      jump\t// in\n    tag_261:\n        /* \"#utility.yul\":9924:10063   */\n      swap1\n      pop\n        /* \"#utility.yul\":9651:10070   */\n      swap2\n      swap1\n      pop\n      jump\t// out\n        /* \"#utility.yul\":10076:10244   */\n    tag_164:\n        /* \"#utility.yul\":10216:10236   */\n      0x5461736b206e6f7420636f6d706c657465640000000000000000000000000000\n        /* \"#utility.yul\":10212:10213   */\n      0x00\n        /* \"#utility.yul\":10204:10210   */\n      dup3\n        /* \"#utility.yul\":10200:10214   */\n      add\n        /* \"#utility.yul\":10193:10237   */\n      mstore\n        /* \"#utility.yul\":10076:10244   */\n      pop\n      jump\t// out\n        /* \"#utility.yul\":10250:10616   */\n    tag_165:\n        /* \"#utility.yul\":10392:10395   */\n      0x00\n        /* \"#utility.yul\":10413:10480   */\n      tag_264\n        /* \"#utility.yul\":10477:10479   */\n      0x12\n        /* \"#utility.yul\":10472:10475   */\n      dup4\n        /* \"#utility.yul\":10413:10480   */\n      tag_150\n      jump\t// in\n    tag_264:\n        /* \"#utility.yul\":10406:10480   */\n      swap2\n      pop\n        /* \"#utility.yul\":10489:10582   */\n      tag_265\n        /* \"#utility.yul\":10578:10581   */\n      dup3\n        /* \"#utility.yul\":10489:10582   */\n      tag_164\n      jump\t// in\n    tag_265:\n        /* \"#utility.yul\":10607:10609   */\n      0x20\n        /* \"#utility.yul\":10602:10605   */\n      dup3\n        /* \"#utility.yul\":10598:10610   */\n      add\n        /* \"#utility.yul\":10591:10610   */\n      swap1\n      pop\n        /* \"#utility.yul\":10250:10616   */\n      swap2\n      swap1\n      pop\n      jump\t// out\n        /* \"#utility.yul\":10622:11041   */\n    tag_96:\n        /* \"#utility.yul\":10788:10792   */\n      0x00\n        /* \"#utility.yul\":10826:10828   */\n      0x20\n        /* \"#utility.yul\":10815:10824   */\n      dup3\n        /* \"#utility.yul\":10811:10829   */\n      add\n        /* \"#utility.yul\":10803:10829   */\n      swap1\n      pop\n        /* \"#utility.yul\":10875:10884   */\n      dup2\n        /* \"#utility.yul\":10869:10873   */\n      dup2\n        /* \"#utility.yul\":10865:10885   */\n      sub\n        /* \"#utility.yul\":10861:10862   */\n      0x00\n        /* \"#utility.yul\":10850:10859   */\n      dup4\n        /* \"#utility.yul\":10846:10863   */\n      add\n        /* \"#utility.yul\":10839:10886   */\n      mstore\n        /* \"#utility.yul\":10903:11034   */\n      tag_267\n        /* \"#utility.yul\":11029:11033   */\n      dup2\n        /* \"#utility.yul\":10903:11034   */\n      tag_165\n      jump\t// in\n    tag_267:\n        /* \"#utility.yul\":10895:11034   */\n      swap1\n      pop\n        /* \"#utility.yul\":10622:11041   */\n      swap2\n      swap1\n      pop\n      jump\t// out\n        /* \"#utility.yul\":11047:11220   */\n    tag_166:\n        /* \"#utility.yul\":11187:11212   */\n      0x4f6e6c7920636c69656e742063616e20636f6e6669726d000000000000000000\n        /* \"#utility.yul\":11183:11184   */\n      0x00\n        /* \"#utility.yul\":11175:11181   */\n      dup3\n        /* \"#utility.yul\":11171:11185   */\n      add\n        /* \"#utility.yul\":11164:11213   */\n      mstore\n        /* \"#utility.yul\":11047:11220   */\n      pop\n      jump\t// out\n        /* \"#utility.yul\":11226:11592   */\n    tag_167:\n        /* \"#utility.yul\":11368:11371   */\n      0x00\n        /* \"#utility.yul\":11389:11456   */\n      tag_270\n        /* \"#utility.yul\":11453:11455   */\n      0x17\n        /* \"#utility.yul\":11448:11451   */\n      dup4\n        /* \"#utility.yul\":11389:11456   */\n      tag_150\n      jump\t// in\n    tag_270:\n        /* \"#utility.yul\":11382:11456   */\n      swap2\n      pop\n        /* \"#utility.yul\":11465:11558   */\n      tag_271\n        /* \"#utility.yul\":11554:11557   */\n      dup3\n        /* \"#utility.yul\":11465:11558   */\n      tag_166\n      jump\t// in\n    tag_271:\n        /* \"#utility.yul\":11583:11585   */\n      0x20\n        /* \"#utility.yul\":11578:11581   */\n      dup3\n        /* \"#utility.yul\":11574:11586   */\n      add\n        /* \"#utility.yul\":11567:11586   */\n      swap1\n      pop\n        /* \"#utility.yul\":11226:11592   */\n      swap2\n      swap1\n      pop\n      jump\t// out\n        /* \"#utility.yul\":11598:12017   */\n    tag_99:\n        /* \"#utility.yul\":11764:11768   */\n      0x00\n        /* \"#utility.yul\":11802:11804   */\n      0x20\n        /* \"#utility.yul\":11791:11800   */\n      dup3\n        /* \"#utility.yul\":11787:11805   */\n      add\n        /* \"#utility.yul\":11779:11805   */\n      swap1\n      pop\n        /* \"#utility.yul\":11851:11860   */\n      dup2\n        /* \"#utility.yul\":11845:11849   */\n      dup2\n        /* \"#utility.yul\":11841:11861   */\n      sub\n        /* \"#utility.yul\":11837:11838   */\n      0x00\n        /* \"#utility.yul\":11826:11835   */\n      dup4\n        /* \"#utility.yul\":11822:11839   */\n      add\n        /* \"#utility.yul\":11815:11862   */\n      mstore\n        /* \"#utility.yul\":11879:12010   */\n      tag_273\n        /* \"#utility.yul\":12005:12009   */\n      dup2\n        /* \"#utility.yul\":11879:12010   */\n      tag_167\n      jump\t// in\n    tag_273:\n        /* \"#utility.yul\":11871:12010   */\n      swap1\n      pop\n        /* \"#utility.yul\":11598:12017   */\n      swap2\n      swap1\n      pop\n      jump\t// out\n        /* \"#utility.yul\":12023:12187   */\n    tag_168:\n        /* \"#utility.yul\":12163:12179   */\n      0x5061796d656e74206661696c6564000000000000000000000000000000000000\n        /* \"#utility.yul\":12159:12160   */\n      0x00\n        /* \"#utility.yul\":12151:12157   */\n      dup3\n        /* \"#utility.yul\":12147:12161   */\n      add\n        /* \"#utility.yul\":12140:12180   */\n      mstore\n        /* \"#utility.yul\":12023:12187   */\n      pop\n      jump\t// out\n        /* \"#utility.yul\":12193:12559   */\n    tag_169:\n        /* \"#utility.yul\":12335:12338   */\n      0x00\n        /* \"#utility.yul\":12356:12423   */\n      tag_276\n        /* \"#utility.yul\":12420:12422   */\n      0x0e\n        /* \"#utility.yul\":12415:12418   */\n      dup4\n        /* \"#utility.yul\":12356:12423   */\n      tag_150\n      jump\t// in\n    tag_276:\n        /* \"#utility.yul\":12349:12423   */\n      swap2\n      pop\n        /* \"#utility.yul\":12432:12525   */\n      tag_277\n        /* \"#utility.yul\":12521:12524   */\n      dup3\n        /* \"#utility.yul\":12432:12525   */\n      tag_168\n      jump\t// in\n    tag_277:\n        /* \"#utility.yul\":12550:12552   */\n      0x20\n        /* \"#utility.yul\":12545:12548   */\n      dup3\n        /* \"#utility.yul\":12541:12553   */\n      add\n        /* \"#utility.yul\":12534:12553   */\n      swap1\n      pop\n        /* \"#utility.yul\":12193:12559   */\n      swap2\n      swap1\n      pop\n      jump\t// out\n        /* \"#utility.yul\":12565:12984   */\n    tag_108:\n        /* \"#utility.yul\":12731:12735   */\n      0x00\n        /* \"#utility.yul\":12769:12771   */\n      0x20\n        /* \"#utility.yul\":12758:12767   */\n      dup3\n        /* \"#utility.yul\":12754:12772   */\n      add\n        /* \"#utility.yul\":12746:12772   */\n      swap1\n      pop\n        /* \"#utility.yul\":12818:12827   */\n      dup2\n        /* \"#utility.yul\":12812:12816   */\n      dup2\n        /* \"#utility.yul\":12808:12828   */\n      sub\n        /* \"#utility.yul\":12804:12805   */\n      0x00\n        /* \"#utility.yul\":12793:12802   */\n      dup4\n        /* \"#utility.yul\":12789:12806   */\n      add\n        /* \"#utility.yul\":12782:12829   */\n      mstore\n        /* \"#utility.yul\":12846:12977   */\n      tag_279\n        /* \"#utility.yul\":12972:12976   */\n      dup2\n        /* \"#utility.yul\":12846:12977   */\n      tag_169\n      jump\t// in\n    tag_279:\n        /* \"#utility.yul\":12838:12977   */\n      swap1\n      pop\n        /* \"#utility.yul\":12565:12984   */\n      swap2\n      swap1\n      pop\n      jump\t// out\n        /* \"#utility.yul\":12990:13170   */\n    tag_170:\n        /* \"#utility.yul\":13130:13162   */\n      0x5061796d656e74206d7573742062652067726561746572207468616e20300000\n        /* \"#utility.yul\":13126:13127   */\n      0x00\n        /* \"#utility.yul\":13118:13124   */\n      dup3\n        /* \"#utility.yul\":13114:13128   */\n      add\n        /* \"#utility.yul\":13107:13163   */\n      mstore\n        /* \"#utility.yul\":12990:13170   */\n      pop\n      jump\t// out\n        /* \"#utility.yul\":13176:13542   */\n    tag_171:\n        /* \"#utility.yul\":13318:13321   */\n      0x00\n        /* \"#utility.yul\":13339:13406   */\n      tag_282\n        /* \"#utility.yul\":13403:13405   */\n      0x1e\n        /* \"#utility.yul\":13398:13401   */\n      dup4\n        /* \"#utility.yul\":13339:13406   */\n      tag_150\n      jump\t// in\n    tag_282:\n        /* \"#utility.yul\":13332:13406   */\n      swap2\n      pop\n        /* \"#utility.yul\":13415:13508   */\n      tag_283\n        /* \"#utility.yul\":13504:13507   */\n      dup3\n        /* \"#utility.yul\":13415:13508   */\n      tag_170\n      jump\t// in\n    tag_283:\n        /* \"#utility.yul\":13533:13535   */\n      0x20\n        /* \"#utility.yul\":13528:13531   */\n      dup3\n        /* \"#utility.yul\":13524:13536   */\n      add\n        /* \"#utility.yul\":13517:13536   */\n      swap1\n      pop\n        /* \"#utility.yul\":13176:13542   */\n      swap2\n      swap1\n      pop\n      jump\t// out\n        /* \"#utility.yul\":13548:13967   */\n    tag_113:\n        /* \"#utility.yul\":13714:13718   */\n      0x00\n        /* \"#utility.yul\":13752:13754   */\n      0x20\n        /* \"#utility.yul\":13741:13750   */\n      dup3\n        /* \"#utility.yul\":13737:13755   */\n      add\n        /* \"#utility.yul\":13729:13755   */\n      swap1\n      pop\n        /* \"#utility.yul\":13801:13810   */\n      dup2\n        /* \"#utility.yul\":13795:13799   */\n      dup2\n        /* \"#utility.yul\":13791:13811   */\n      sub\n        /* \"#utility.yul\":13787:13788   */\n      0x00\n        /* \"#utility.yul\":13776:13785   */\n      dup4\n        /* \"#utility.yul\":13772:13789   */\n      add\n        /* \"#utility.yul\":13765:13812   */\n      mstore\n        /* \"#utility.yul\":13829:13960   */\n      tag_285\n        /* \"#utility.yul\":13955:13959   */\n      dup2\n        /* \"#utility.yul\":13829:13960   */\n      tag_171\n      jump\t// in\n    tag_285:\n        /* \"#utility.yul\":13821:13960   */\n      swap1\n      pop\n        /* \"#utility.yul\":13548:13967   */\n      swap2\n      swap1\n      pop\n      jump\t// out\n        /* \"#utility.yul\":13973:14153   */\n    tag_172:\n        /* \"#utility.yul\":14021:14098   */\n      0x4e487b7100000000000000000000000000000000000000000000000000000000\n        /* \"#utility.yul\":14018:14019   */\n      0x00\n        /* \"#utility.yul\":14011:14099   */\n      mstore\n        /* \"#utility.yul\":14118:14122   */\n      0x11\n        /* \"#utility.yul\":14115:14116   */\n      0x04\n        /* \"#utility.yul\":14108:14123   */\n      mstore\n        /* \"#utility.yul\":14142:14146   */\n      0x24\n        /* \"#utility.yul\":14139:14140   */\n      0x00\n        /* \"#utility.yul\":14132:14147   */\n      revert\n        /* \"#utility.yul\":14159:14392   */\n    tag_115:\n        /* \"#utility.yul\":14198:14201   */\n      0x00\n        /* \"#utility.yul\":14221:14245   */\n      tag_288\n        /* \"#utility.yul\":14239:14244   */\n      dup3\n        /* \"#utility.yul\":14221:14245   */\n      tag_137\n      jump\t// in\n    tag_288:\n        /* \"#utility.yul\":14212:14245   */\n      swap2\n      pop\n        /* \"#utility.yul\":14267:14333   */\n      0xffffffffffffffffffffffffffffffffffffffffffffffffffffffffffffffff\n        /* \"#utility.yul\":14260:14265   */\n      dup3\n        /* \"#utility.yul\":14257:14334   */\n      sub\n        /* \"#utility.yul\":14254:14357   */\n      tag_289\n      jumpi\n        /* \"#utility.yul\":14337:14355   */\n      tag_290\n      tag_172\n      jump\t// in\n    tag_290:\n        /* \"#utility.yul\":14254:14357   */\n    tag_289:\n        /* \"#utility.yul\":14384:14385   */\n      0x01\n        /* \"#utility.yul\":14377:14382   */\n      dup3\n        /* \"#utility.yul\":14373:14386   */\n      add\n        /* \"#utility.yul\":14366:14386   */\n      swap1\n      pop\n        /* \"#utility.yul\":14159:14392   */\n      swap2\n      swap1\n      pop\n      jump\t// out\n        /* \"#utility.yul\":14398:14568   */\n    tag_173:\n        /* \"#utility.yul\":14538:14560   */\n      0x5461736b206e6f7420696e2070726f6772657373000000000000000000000000\n        /* \"#utility.yul\":14534:14535   */\n      0x00\n        /* \"#utility.yul\":14526:14532   */\n      dup3\n        /* \"#utility.yul\":14522:14536   */\n      add\n        /* \"#utility.yul\":14515:14561   */\n      mstore\n        /* \"#utility.yul\":14398:14568   */\n      pop\n      jump\t// out\n        /* \"#utility.yul\":14574:14940   */\n    tag_174:\n        /* \"#utility.yul\":14716:14719   */\n      0x00\n        /* \"#utility.yul\":14737:14804   */\n      tag_293\n        /* \"#utility.yul\":14801:14803   */\n      0x14\n        /* \"#utility.yul\":14796:14799   */\n      dup4\n        /* \"#utility.yul\":14737:14804   */\n      tag_150\n      jump\t// in\n    tag_293:\n        /* \"#utility.yul\":14730:14804   */\n      swap2\n      pop\n        /* \"#utility.yul\":14813:14906   */\n      tag_294\n        /* \"#utility.yul\":14902:14905   */\n      dup3\n        /* \"#utility.yul\":14813:14906   */\n      tag_173\n      jump\t// in\n    tag_294:\n        /* \"#utility.yul\":14931:14933   */\n      0x20\n        /* \"#utility.yul\":14926:14929   */\n      dup3\n        /* \"#utility.yul\":14922:14934   */\n      add\n        /* \"#utility.yul\":14915:14934   */\n      swap1\n      pop\n        /* \"#utility.yul\":14574:14940   */\n      swap2\n      swap1\n      pop\n      jump\t// out\n        /* \"#utility.yul\":14946:15365   */\n    tag_128:\n        /* \"#utility.yul\":15112:15116   */\n      0x00\n        /* \"#utility.yul\":15150:15152   */\n      0x20\n        /* \"#utility.yul\":15139:15148   */\n      dup3\n        /* \"#utility.yul\":15135:15153   */\n      add\n        /* \"#utility.yul\":15127:15153   */\n      swap1\n      pop\n        /* \"#utility.yul\":15199:15208   */\n      dup2\n        /* \"#utility.yul\":15193:15197   */\n      dup2\n        /* \"#utility.yul\":15189:15209   */\n      sub\n        /* \"#utility.yul\":15185:15186   */\n      0x00\n        /* \"#utility.yul\":15174:15183   */\n      dup4\n        /* \"#utility.yul\":15170:15187   */\n      add\n        /* \"#utility.yul\":15163:15210   */\n      mstore\n        /* \"#utility.yul\":15227:15358   */\n      tag_296\n        /* \"#utility.yul\":15353:15357   */\n      dup2\n        /* \"#utility.yul\":15227:15358   */\n      tag_174\n      jump\t// in\n    tag_296:\n        /* \"#utility.yul\":15219:15358   */\n      swap1\n      pop\n        /* \"#utility.yul\":14946:15365   */\n      swap2\n      swap1\n      pop\n      jump\t// out\n        /* \"#utility.yul\":15371:15549   */\n    tag_175:\n        /* \"#utility.yul\":15511:15541   */\n      0x4f6e6c7920667265656c616e6365722063616e20636f6d706c65746500000000\n        /* \"#utility.yul\":15507:15508   */\n      0x00\n        /* \"#utility.yul\":15499:15505   */\n      dup3\n        /* \"#utility.yul\":15495:15509   */\n      add\n        /* \"#utility.yul\":15488:15542   */\n      mstore\n        /* \"#utility.yul\":15371:15549   */\n      pop\n      jump\t// out\n        /* \"#utility.yul\":15555:15921   */\n    tag_176:\n        /* \"#utility.yul\":15697:15700   */\n      0x00\n        /* \"#utility.yul\":15718:15785   */\n      tag_299\n        /* \"#utility.yul\":15782:15784   */\n      0x1c\n        /* \"#utility.yul\":15777:15780   */\n      dup4\n        /* \"#utility.yul\":15718:15785   */\n      tag_150\n      jump\t// in\n    tag_299:\n        /* \"#utility.yul\":15711:15785   */\n      swap2\n      pop\n        /* \"#utility.yul\":15794:15887   */\n      tag_300\n        /* \"#utility.yul\":15883:15886   */\n      dup3\n        /* \"#utility.yul\":15794:15887   */\n      tag_175\n      jump\t// in\n    tag_300:\n        /* \"#utility.yul\":15912:15914   */\n      0x20\n        /* \"#utility.yul\":15907:15910   */\n      dup3\n        /* \"#utility.yul\":15903:15915   */\n      add\n        /* \"#utility.yul\":15896:15915   */\n      swap1\n      pop\n        /* \"#utility.yul\":15555:15921   */\n      swap2\n      swap1\n      pop\n      jump\t// out\n        /* \"#utility.yul\":15927:16346   */\n    tag_131:\n        /* \"#utility.yul\":16093:16097   */\n      0x00\n        /* \"#utility.yul\":16131:16133   */\n      0x20\n        /* \"#utility.yul\":16120:16129   */\n      dup3\n        /* \"#utility.yul\":16116:16134   */\n      add\n        /* \"#utility.yul\":16108:16134   */\n      swap1\n      pop\n        /* \"#utility.yul\":16180:16189   */\n      dup2\n        /* \"#utility.yul\":16174:16178   */\n      dup2\n        /* \"#utility.yul\":16170:16190   */\n      sub\n        /* \"#utility.yul\":16166:16167   */\n      0x00\n        /* \"#utility.yul\":16155:16164   */\n      dup4\n        /* \"#utility.yul\":16151:16168   */\n      add\n        /* \"#utility.yul\":16144:16191   */\n      mstore\n        /* \"#utility.yul\":16208:16339   */\n      tag_302\n        /* \"#utility.yul\":16334:16338   */\n      dup2\n        /* \"#utility.yul\":16208:16339   */\n      tag_176\n      jump\t// in\n    tag_302:\n        /* \"#utility.yul\":16200:16339   */\n      swap1\n      pop\n        /* \"#utility.yul\":15927:16346   */\n      swap2\n      swap1\n      pop\n      jump\t// out\n\n    auxdata: 0xa2646970667358221220eef15c3e8fe68a4fffe564cee41105b70dcd131ad569b85e4a20db6dca329f1064736f6c634300081e0033\n}\n",
				"bytecode": {
					"linkReferences": {},
					"object": "6080604052348015600e575f5ffd5b506114fb8061001c5f395ff3fe60806040526004361061007a575f3560e01c806393bb22841161004d57806393bb22841461014c578063a747649314610174578063b6cb58a51461017e578063cac5c512146101a85761007a565b80631bf6912d1461007e5780631d65e77e146100a65780637eec20a8146100e55780638d9776721461010d575b5f5ffd5b348015610089575f5ffd5b506100a4600480360381019061009f9190610db7565b6101d0565b005b3480156100b1575f5ffd5b506100cc60048036038101906100c79190610db7565b6103a0565b6040516100dc9493929190610ea3565b60405180910390f35b3480156100f0575f5ffd5b5061010b60048036038101906101069190610db7565b610425565b005b348015610118575f5ffd5b50610133600480360381019061012e9190610db7565b61071a565b6040516101439493929190610f06565b60405180910390f35b348015610157575f5ffd5b50610172600480360381019061016d9190610db7565b610790565b005b61017c610a21565b005b348015610189575f5ffd5b50610192610c02565b60405161019f9190610f49565b60405180910390f35b3480156101b3575f5ffd5b506101ce60048036038101906101c99190610db7565b610c07565b005b5f60015f8381526020019081526020015f2090505f60048111156101f7576101f6610e30565b5b816003015f9054906101000a900460ff16600481111561021a57610219610e30565b5b1461025a576040517f08c379a000000000000000000000000000000000000000000000000000000000815260040161025190610fbc565b60405180910390fd5b805f015f9054906101000a900473ffffffffffffffffffffffffffffffffffffffff1673ffffffffffffffffffffffffffffffffffffffff163373ffffffffffffffffffffffffffffffffffffffff16036102ea576040517f08c379a00000000000000000000000000000000000000000000000000000000081526004016102e190611024565b60405180910390fd5b33816001015f6101000a81548173ffffffffffffffffffffffffffffffffffffffff021916908373ffffffffffffffffffffffffffffffffffffffff1602179055506001816003015f6101000a81548160ff0219169083600481111561035357610352610e30565b5b02179055503373ffffffffffffffffffffffffffffffffffffffff16827fc8717b61398fb9d7cacf49fe1e296b2f10e9711226b532842b6ffd642cb6a2c660405160405180910390a35050565b5f5f5f5f5f60015f8781526020019081526020015f209050805f015f9054906101000a900473ffffffffffffffffffffffffffffffffffffffff16816001015f9054906101000a900473ffffffffffffffffffffffffffffffffffffffff168260020154836003015f9054906101000a900460ff169450945094509450509193509193565b5f60015f8381526020019081526020015f209050805f015f9054906101000a900473ffffffffffffffffffffffffffffffffffffffff1673ffffffffffffffffffffffffffffffffffffffff163373ffffffffffffffffffffffffffffffffffffffff1614806104e35750806001015f9054906101000a900473ffffffffffffffffffffffffffffffffffffffff1673ffffffffffffffffffffffffffffffffffffffff163373ffffffffffffffffffffffffffffffffffffffff16145b610522576040517f08c379a0000000000000000000000000000000000000000000000000000000008152600401610519906110b2565b60405180910390fd5b5f600481111561053557610534610e30565b5b816003015f9054906101000a900460ff16600481111561055857610557610e30565b5b148061059857506001600481111561057357610572610e30565b5b816003015f9054906101000a900460ff16600481111561059657610595610e30565b5b145b6105d7576040517f08c379a00000000000000000000000000000000000000000000000000000000081526004016105ce9061111a565b60405180910390fd5b6004816003015f6101000a81548160ff021916908360048111156105fe576105fd610e30565b5b02179055505f815f015f9054906101000a900473ffffffffffffffffffffffffffffffffffffffff1673ffffffffffffffffffffffffffffffffffffffff16826002015460405161064e90611165565b5f6040518083038185875af1925050503d805f8114610688576040519150601f19603f3d011682016040523d82523d5f602084013e61068d565b606091505b50509050806106d1576040517f08c379a00000000000000000000000000000000000000000000000000000000081526004016106c8906111c3565b60405180910390fd5b3373ffffffffffffffffffffffffffffffffffffffff16837f76be7f7b12bf790225259ca3b7ffb98f222f79af3c4c074e88e0c97af6f1402560405160405180910390a3505050565b6001602052805f5260405f205f91509050805f015f9054906101000a900473ffffffffffffffffffffffffffffffffffffffff1690806001015f9054906101000a900473ffffffffffffffffffffffffffffffffffffffff1690806002015490806003015f9054906101000a900460ff16905084565b5f60015f8381526020019081526020015f209050600260048111156107b8576107b7610e30565b5b816003015f9054906101000a900460ff1660048111156107db576107da610e30565b5b1461081b576040517f08c379a00000000000000000000000000000000000000000000000000000000081526004016108129061122b565b60405180910390fd5b805f015f9054906101000a900473ffffffffffffffffffffffffffffffffffffffff1673ffffffffffffffffffffffffffffffffffffffff163373ffffffffffffffffffffffffffffffffffffffff16146108ab576040517f08c379a00000000000000000000000000000000000000000000000000000000081526004016108a290611293565b60405180910390fd5b6003816003015f6101000a81548160ff021916908360048111156108d2576108d1610e30565b5b02179055505f816001015f9054906101000a900473ffffffffffffffffffffffffffffffffffffffff1673ffffffffffffffffffffffffffffffffffffffff16826002015460405161092390611165565b5f6040518083038185875af1925050503d805f811461095d576040519150601f19603f3d011682016040523d82523d5f602084013e610962565b606091505b50509050806109a6576040517f08c379a000000000000000000000000000000000000000000000000000000000815260040161099d906112fb565b60405180910390fd5b816001015f9054906101000a900473ffffffffffffffffffffffffffffffffffffffff1673ffffffffffffffffffffffffffffffffffffffff16837fa07faadda36641e27d06e326154d794c6c68f33a649da404fc368078c66d4beb8460020154604051610a149190610f49565b60405180910390a3505050565b5f3411610a63576040517f08c379a0000000000000000000000000000000000000000000000000000000008152600401610a5a90611363565b60405180910390fd5b5f5f815480929190610a74906113ae565b919050555060405180608001604052803373ffffffffffffffffffffffffffffffffffffffff1681526020015f73ffffffffffffffffffffffffffffffffffffffff1681526020013481526020015f6004811115610ad557610ad4610e30565b5b81525060015f5f5481526020019081526020015f205f820151815f015f6101000a81548173ffffffffffffffffffffffffffffffffffffffff021916908373ffffffffffffffffffffffffffffffffffffffff1602179055506020820151816001015f6101000a81548173ffffffffffffffffffffffffffffffffffffffff021916908373ffffffffffffffffffffffffffffffffffffffff160217905550604082015181600201556060820151816003015f6101000a81548160ff02191690836004811115610ba857610ba7610e30565b5b02179055509050503373ffffffffffffffffffffffffffffffffffffffff165f547f6cf53aa7292e664152c2ea948c3b3c95d4b05c36daeb2626d0293473c4a4a15334604051610bf89190610f49565b60405180910390a3565b5f5481565b5f60015f8381526020019081526020015f20905060016004811115610c2f57610c2e610e30565b5b816003015f9054906101000a900460ff166004811115610c5257610c51610e30565b5b14610c92576040517f08c379a0000000000000000000000000000000000000000000000000000000008152600401610c899061143f565b60405180910390fd5b806001015f9054906101000a900473ffffffffffffffffffffffffffffffffffffffff1673ffffffffffffffffffffffffffffffffffffffff163373ffffffffffffffffffffffffffffffffffffffff1614610d23576040517f08c379a0000000000000000000000000000000000000000000000000000000008152600401610d1a906114a7565b60405180910390fd5b6002816003015f6101000a81548160ff02191690836004811115610d4a57610d49610e30565b5b0217905550817fc1fa7142cfb933d0855114a3bffde296944c30b727f297c14d0db4d553d3a5c760405160405180910390a25050565b5f5ffd5b5f819050919050565b610d9681610d84565b8114610da0575f5ffd5b50565b5f81359050610db181610d8d565b92915050565b5f60208284031215610dcc57610dcb610d80565b5b5f610dd984828501610da3565b91505092915050565b5f73ffffffffffffffffffffffffffffffffffffffff82169050919050565b5f610e0b82610de2565b9050919050565b610e1b81610e01565b82525050565b610e2a81610d84565b82525050565b7f4e487b71000000000000000000000000000000000000000000000000000000005f52602160045260245ffd5b60058110610e6e57610e6d610e30565b5b50565b5f819050610e7e82610e5d565b919050565b5f610e8d82610e71565b9050919050565b610e9d81610e83565b82525050565b5f608082019050610eb65f830187610e12565b610ec36020830186610e12565b610ed06040830185610e21565b610edd6060830184610e94565b95945050505050565b5f610ef082610de2565b9050919050565b610f0081610ee6565b82525050565b5f608082019050610f195f830187610ef7565b610f266020830186610ef7565b610f336040830185610e21565b610f406060830184610e94565b95945050505050565b5f602082019050610f5c5f830184610e21565b92915050565b5f82825260208201905092915050565b7f5461736b206973206e6f74206f70656e000000000000000000000000000000005f82015250565b5f610fa6601083610f62565b9150610fb182610f72565b602082019050919050565b5f6020820190508181035f830152610fd381610f9a565b9050919050565b7f436c69656e742063616e6e6f7420616363657074206f776e207461736b0000005f82015250565b5f61100e601d83610f62565b915061101982610fda565b602082019050919050565b5f6020820190508181035f83015261103b81611002565b9050919050565b7f4f6e6c7920636c69656e74206f7220667265656c616e6365722063616e2063615f8201527f6e63656c00000000000000000000000000000000000000000000000000000000602082015250565b5f61109c602483610f62565b91506110a782611042565b604082019050919050565b5f6020820190508181035f8301526110c981611090565b9050919050565b7f5461736b2063616e6e6f742062652063616e63656c6c656400000000000000005f82015250565b5f611104601883610f62565b915061110f826110d0565b602082019050919050565b5f6020820190508181035f830152611131816110f8565b9050919050565b5f81905092915050565b50565b5f6111505f83611138565b915061115b82611142565b5f82019050919050565b5f61116f82611145565b9150819050919050565b7f526566756e64206661696c6564000000000000000000000000000000000000005f82015250565b5f6111ad600d83610f62565b91506111b882611179565b602082019050919050565b5f6020820190508181035f8301526111da816111a1565b9050919050565b7f5461736b206e6f7420636f6d706c6574656400000000000000000000000000005f82015250565b5f611215601283610f62565b9150611220826111e1565b602082019050919050565b5f6020820190508181035f83015261124281611209565b9050919050565b7f4f6e6c7920636c69656e742063616e20636f6e6669726d0000000000000000005f82015250565b5f61127d601783610f62565b915061128882611249565b602082019050919050565b5f6020820190508181035f8301526112aa81611271565b9050919050565b7f5061796d656e74206661696c65640000000000000000000000000000000000005f82015250565b5f6112e5600e83610f62565b91506112f0826112b1565b602082019050919050565b5f6020820190508181035f830152611312816112d9565b9050919050565b7f5061796d656e74206d7573742062652067726561746572207468616e203000005f82015250565b5f61134d601e83610f62565b915061135882611319565b602082019050919050565b5f6020820190508181035f83015261137a81611341565b9050919050565b7f4e487b71000000000000000000000000000000000000000000000000000000005f52601160045260245ffd5b5f6113b882610d84565b91507fffffffffffffffffffffffffffffffffffffffffffffffffffffffffffffffff82036113ea576113e9611381565b5b600182019050919050565b7f5461736b206e6f7420696e2070726f67726573730000000000000000000000005f82015250565b5f611429601483610f62565b9150611434826113f5565b602082019050919050565b5f6020820190508181035f8301526114568161141d565b9050919050565b7f4f6e6c7920667265656c616e6365722063616e20636f6d706c657465000000005f82015250565b5f611491601c83610f62565b915061149c8261145d565b602082019050919050565b5f6020820190508181035f8301526114be81611485565b905091905056fea2646970667358221220eef15c3e8fe68a4fffe564cee41105b70dcd131ad569b85e4a20db6dca329f1064736f6c634300081e0033",
					"opcodes": "PUSH1 0x80 PUSH1 0x40 MSTORE CALLVALUE DUP1 ISZERO PUSH1 0xE JUMPI PUSH0 PUSH0 REVERT JUMPDEST POP PUSH2 0x14FB DUP1 PUSH2 0x1C PUSH0 CODECOPY PUSH0 RETURN INVALID PUSH1 0x80 PUSH1 0x40 MSTORE PUSH1 0x4 CALLDATASIZE LT PUSH2 0x7A JUMPI PUSH0 CALLDATALOAD PUSH1 0xE0 SHR DUP1 PUSH4 0x93BB2284 GT PUSH2 0x4D JUMPI DUP1 PUSH4 0x93BB2284 EQ PUSH2 0x14C JUMPI DUP1 PUSH4 0xA7476493 EQ PUSH2 0x174 JUMPI DUP1 PUSH4 0xB6CB58A5 EQ PUSH2 0x17E JUMPI DUP1 PUSH4 0xCAC5C512 EQ PUSH2 0x1A8 JUMPI PUSH2 0x7A JUMP JUMPDEST DUP1 PUSH4 0x1BF6912D EQ PUSH2 0x7E JUMPI DUP1 PUSH4 0x1D65E77E EQ PUSH2 0xA6 JUMPI DUP1 PUSH4 0x7EEC20A8 EQ PUSH2 0xE5 JUMPI DUP1 PUSH4 0x8D977672 EQ PUSH2 0x10D JUMPI JUMPDEST PUSH0 PUSH0 REVERT JUMPDEST CALLVALUE DUP1 ISZERO PUSH2 0x89 JUMPI PUSH0 PUSH0 REVERT JUMPDEST POP PUSH2 0xA4 PUSH1 0x4 DUP1 CALLDATASIZE SUB DUP2 ADD SWAP1 PUSH2 0x9F SWAP2 SWAP1 PUSH2 0xDB7 JUMP JUMPDEST PUSH2 0x1D0 JUMP JUMPDEST STOP JUMPDEST CALLVALUE DUP1 ISZERO PUSH2 0xB1 JUMPI PUSH0 PUSH0 REVERT JUMPDEST POP PUSH2 0xCC PUSH1 0x4 DUP1 CALLDATASIZE SUB DUP2 ADD SWAP1 PUSH2 0xC7 SWAP2 SWAP1 PUSH2 0xDB7 JUMP JUMPDEST PUSH2 0x3A0 JUMP JUMPDEST PUSH1 0x40 MLOAD PUSH2 0xDC SWAP5 SWAP4 SWAP3 SWAP2 SWAP1 PUSH2 0xEA3 JUMP JUMPDEST PUSH1 0x40 MLOAD DUP1 SWAP2 SUB SWAP1 RETURN JUMPDEST CALLVALUE DUP1 ISZERO PUSH2 0xF0 JUMPI PUSH0 PUSH0 REVERT JUMPDEST POP PUSH2 0x10B PUSH1 0x4 DUP1 CALLDATASIZE SUB DUP2 ADD SWAP1 PUSH2 0x106 SWAP2 SWAP1 PUSH2 0xDB7 JUMP JUMPDEST PUSH2 0x425 JUMP JUMPDEST STOP JUMPDEST CALLVALUE DUP1 ISZERO PUSH2 0x118 JUMPI PUSH0 PUSH0 REVERT JUMPDEST POP PUSH2 0x133 PUSH1 0x4 DUP1 CALLDATASIZE SUB DUP2 ADD SWAP1 PUSH2 0x12E SWAP2 SWAP1 PUSH2 0xDB7 JUMP JUMPDEST PUSH2 0x71A JUMP JUMPDEST PUSH1 0x40 MLOAD PUSH2 0x143 SWAP5 SWAP4 SWAP3 SWAP2 SWAP1 PUSH2 0xF06 JUMP JUMPDEST PUSH1 0x40 MLOAD DUP1 SWAP2 SUB SWAP1 RETURN JUMPDEST CALLVALUE DUP1 ISZERO PUSH2 0x157 JUMPI PUSH0 PUSH0 REVERT JUMPDEST POP PUSH2 0x172 PUSH1 0x4 DUP1 CALLDATASIZE SUB DUP2 ADD SWAP1 PUSH2 0x16D SWAP2 SWAP1 PUSH2 0xDB7 JUMP JUMPDEST PUSH2 0x790 JUMP JUMPDEST STOP JUMPDEST PUSH2 0x17C PUSH2 0xA21 JUMP JUMPDEST STOP JUMPDEST CALLVALUE DUP1 ISZERO PUSH2 0x189 JUMPI PUSH0 PUSH0 REVERT JUMPDEST POP PUSH2 0x192 PUSH2 0xC02 JUMP JUMPDEST PUSH1 0x40 MLOAD PUSH2 0x19F SWAP2 SWAP1 PUSH2 0xF49 JUMP JUMPDEST PUSH1 0x40 MLOAD DUP1 SWAP2 SUB SWAP1 RETURN JUMPDEST CALLVALUE DUP1 ISZERO PUSH2 0x1B3 JUMPI PUSH0 PUSH0 REVERT JUMPDEST POP PUSH2 0x1CE PUSH1 0x4 DUP1 CALLDATASIZE SUB DUP2 ADD SWAP1 PUSH2 0x1C9 SWAP2 SWAP1 PUSH2 0xDB7 JUMP JUMPDEST PUSH2 0xC07 JUMP JUMPDEST STOP JUMPDEST PUSH0 PUSH1 0x1 PUSH0 DUP4 DUP2 MSTORE PUSH1 0x20 ADD SWAP1 DUP2 MSTORE PUSH1 0x20 ADD PUSH0 KECCAK256 SWAP1 POP PUSH0 PUSH1 0x4 DUP2 GT ISZERO PUSH2 0x1F7 JUMPI PUSH2 0x1F6 PUSH2 0xE30 JUMP JUMPDEST JUMPDEST DUP2 PUSH1 0x3 ADD PUSH0 SWAP1 SLOAD SWAP1 PUSH2 0x100 EXP SWAP1 DIV PUSH1 0xFF AND PUSH1 0x4 DUP2 GT ISZERO PUSH2 0x21A JUMPI PUSH2 0x219 PUSH2 0xE30 JUMP JUMPDEST JUMPDEST EQ PUSH2 0x25A JUMPI PUSH1 0x40 MLOAD PUSH32 0x8C379A000000000000000000000000000000000000000000000000000000000 DUP2 MSTORE PUSH1 0x4 ADD PUSH2 0x251 SWAP1 PUSH2 0xFBC JUMP JUMPDEST PUSH1 0x40 MLOAD DUP1 SWAP2 SUB SWAP1 REVERT JUMPDEST DUP1 PUSH0 ADD PUSH0 SWAP1 SLOAD SWAP1 PUSH2 0x100 EXP SWAP1 DIV PUSH20 0xFFFFFFFFFFFFFFFFFFFFFFFFFFFFFFFFFFFFFFFF AND PUSH20 0xFFFFFFFFFFFFFFFFFFFFFFFFFFFFFFFFFFFFFFFF AND CALLER PUSH20 0xFFFFFFFFFFFFFFFFFFFFFFFFFFFFFFFFFFFFFFFF AND SUB PUSH2 0x2EA JUMPI PUSH1 0x40 MLOAD PUSH32 0x8C379A000000000000000000000000000000000000000000000000000000000 DUP2 MSTORE PUSH1 0x4 ADD PUSH2 0x2E1 SWAP1 PUSH2 0x1024 JUMP JUMPDEST PUSH1 0x40 MLOAD DUP1 SWAP2 SUB SWAP1 REVERT JUMPDEST CALLER DUP2 PUSH1 0x1 ADD PUSH0 PUSH2 0x100 EXP DUP2 SLOAD DUP2 PUSH20 0xFFFFFFFFFFFFFFFFFFFFFFFFFFFFFFFFFFFFFFFF MUL NOT AND SWAP1 DUP4 PUSH20 0xFFFFFFFFFFFFFFFFFFFFFFFFFFFFFFFFFFFFFFFF AND MUL OR SWAP1 SSTORE POP PUSH1 0x1 DUP2 PUSH1 0x3 ADD PUSH0 PUSH2 0x100 EXP DUP2 SLOAD DUP2 PUSH1 0xFF MUL NOT AND SWAP1 DUP4 PUSH1 0x4 DUP2 GT ISZERO PUSH2 0x353 JUMPI PUSH2 0x352 PUSH2 0xE30 JUMP JUMPDEST JUMPDEST MUL OR SWAP1 SSTORE POP CALLER PUSH20 0xFFFFFFFFFFFFFFFFFFFFFFFFFFFFFFFFFFFFFFFF AND DUP3 PUSH32 0xC8717B61398FB9D7CACF49FE1E296B2F10E9711226B532842B6FFD642CB6A2C6 PUSH1 0x40 MLOAD PUSH1 0x40 MLOAD DUP1 SWAP2 SUB SWAP1 LOG3 POP POP JUMP JUMPDEST PUSH0 PUSH0 PUSH0 PUSH0 PUSH0 PUSH1 0x1 PUSH0 DUP8 DUP2 MSTORE PUSH1 0x20 ADD SWAP1 DUP2 MSTORE PUSH1 0x20 ADD PUSH0 KECCAK256 SWAP1 POP DUP1 PUSH0 ADD PUSH0 SWAP1 SLOAD SWAP1 PUSH2 0x100 EXP SWAP1 DIV PUSH20 0xFFFFFFFFFFFFFFFFFFFFFFFFFFFFFFFFFFFFFFFF AND DUP2 PUSH1 0x1 ADD PUSH0 SWAP1 SLOAD SWAP1 PUSH2 0x100 EXP SWAP1 DIV PUSH20 0xFFFFFFFFFFFFFFFFFFFFFFFFFFFFFFFFFFFFFFFF AND DUP3 PUSH1 0x2 ADD SLOAD DUP4 PUSH1 0x3 ADD PUSH0 SWAP1 SLOAD SWAP1 PUSH2 0x100 EXP SWAP1 DIV PUSH1 0xFF AND SWAP5 POP SWAP5 POP SWAP5 POP SWAP5 POP POP SWAP2 SWAP4 POP SWAP2 SWAP4 JUMP JUMPDEST PUSH0 PUSH1 0x1 PUSH0 DUP4 DUP2 MSTORE PUSH1 0x20 ADD SWAP1 DUP2 MSTORE PUSH1 0x20 ADD PUSH0 KECCAK256 SWAP1 POP DUP1 PUSH0 ADD PUSH0 SWAP1 SLOAD SWAP1 PUSH2 0x100 EXP SWAP1 DIV PUSH20 0xFFFFFFFFFFFFFFFFFFFFFFFFFFFFFFFFFFFFFFFF AND PUSH20 0xFFFFFFFFFFFFFFFFFFFFFFFFFFFFFFFFFFFFFFFF AND CALLER PUSH20 0xFFFFFFFFFFFFFFFFFFFFFFFFFFFFFFFFFFFFFFFF AND EQ DUP1 PUSH2 0x4E3 JUMPI POP DUP1 PUSH1 0x1 ADD PUSH0 SWAP1 SLOAD SWAP1 PUSH2 0x100 EXP SWAP1 DIV PUSH20 0xFFFFFFFFFFFFFFFFFFFFFFFFFFFFFFFFFFFFFFFF AND PUSH20 0xFFFFFFFFFFFFFFFFFFFFFFFFFFFFFFFFFFFFFFFF AND CALLER PUSH20 0xFFFFFFFFFFFFFFFFFFFFFFFFFFFFFFFFFFFFFFFF AND EQ JUMPDEST PUSH2 0x522 JUMPI PUSH1 0x40 MLOAD PUSH32 0x8C379A000000000000000000000000000000000000000000000000000000000 DUP2 MSTORE PUSH1 0x4 ADD PUSH2 0x519 SWAP1 PUSH2 0x10B2 JUMP JUMPDEST PUSH1 0x40 MLOAD DUP1 SWAP2 SUB SWAP1 REVERT JUMPDEST PUSH0 PUSH1 0x4 DUP2 GT ISZERO PUSH2 0x535 JUMPI PUSH2 0x534 PUSH2 0xE30 JUMP JUMPDEST JUMPDEST DUP2 PUSH1 0x3 ADD PUSH0 SWAP1 SLOAD SWAP1 PUSH2 0x100 EXP SWAP1 DIV PUSH1 0xFF AND PUSH1 0x4 DUP2 GT ISZERO PUSH2 0x558 JUMPI PUSH2 0x557 PUSH2 0xE30 JUMP JUMPDEST JUMPDEST EQ DUP1 PUSH2 0x598 JUMPI POP PUSH1 0x1 PUSH1 0x4 DUP2 GT ISZERO PUSH2 0x573 JUMPI PUSH2 0x572 PUSH2 0xE30 JUMP JUMPDEST JUMPDEST DUP2 PUSH1 0x3 ADD PUSH0 SWAP1 SLOAD SWAP1 PUSH2 0x100 EXP SWAP1 DIV PUSH1 0xFF AND PUSH1 0x4 DUP2 GT ISZERO PUSH2 0x596 JUMPI PUSH2 0x595 PUSH2 0xE30 JUMP JUMPDEST JUMPDEST EQ JUMPDEST PUSH2 0x5D7 JUMPI PUSH1 0x40 MLOAD PUSH32 0x8C379A000000000000000000000000000000000000000000000000000000000 DUP2 MSTORE PUSH1 0x4 ADD PUSH2 0x5CE SWAP1 PUSH2 0x111A JUMP JUMPDEST PUSH1 0x40 MLOAD DUP1 SWAP2 SUB SWAP1 REVERT JUMPDEST PUSH1 0x4 DUP2 PUSH1 0x3 ADD PUSH0 PUSH2 0x100 EXP DUP2 SLOAD DUP2 PUSH1 0xFF MUL NOT AND SWAP1 DUP4 PUSH1 0x4 DUP2 GT ISZERO PUSH2 0x5FE JUMPI PUSH2 0x5FD PUSH2 0xE30 JUMP JUMPDEST JUMPDEST MUL OR SWAP1 SSTORE POP PUSH0 DUP2 PUSH0 ADD PUSH0 SWAP1 SLOAD SWAP1 PUSH2 0x100 EXP SWAP1 DIV PUSH20 0xFFFFFFFFFFFFFFFFFFFFFFFFFFFFFFFFFFFFFFFF AND PUSH20 0xFFFFFFFFFFFFFFFFFFFFFFFFFFFFFFFFFFFFFFFF AND DUP3 PUSH1 0x2 ADD SLOAD PUSH1 0x40 MLOAD PUSH2 0x64E SWAP1 PUSH2 0x1165 JUMP JUMPDEST PUSH0 PUSH1 0x40 MLOAD DUP1 DUP4 SUB DUP2 DUP6 DUP8 GAS CALL SWAP3 POP POP POP RETURNDATASIZE DUP1 PUSH0 DUP2 EQ PUSH2 0x688 JUMPI PUSH1 0x40 MLOAD SWAP2 POP PUSH1 0x1F NOT PUSH1 0x3F RETURNDATASIZE ADD AND DUP3 ADD PUSH1 0x40 MSTORE RETURNDATASIZE DUP3 MSTORE RETURNDATASIZE PUSH0 PUSH1 0x20 DUP5 ADD RETURNDATACOPY PUSH2 0x68D JUMP JUMPDEST PUSH1 0x60 SWAP2 POP JUMPDEST POP POP SWAP1 POP DUP1 PUSH2 0x6D1 JUMPI PUSH1 0x40 MLOAD PUSH32 0x8C379A000000000000000000000000000000000000000000000000000000000 DUP2 MSTORE PUSH1 0x4 ADD PUSH2 0x6C8 SWAP1 PUSH2 0x11C3 JUMP JUMPDEST PUSH1 0x40 MLOAD DUP1 SWAP2 SUB SWAP1 REVERT JUMPDEST CALLER PUSH20 0xFFFFFFFFFFFFFFFFFFFFFFFFFFFFFFFFFFFFFFFF AND DUP4 PUSH32 0x76BE7F7B12BF790225259CA3B7FFB98F222F79AF3C4C074E88E0C97AF6F14025 PUSH1 0x40 MLOAD PUSH1 0x40 MLOAD DUP1 SWAP2 SUB SWAP1 LOG3 POP POP POP JUMP JUMPDEST PUSH1 0x1 PUSH1 0x20 MSTORE DUP1 PUSH0 MSTORE PUSH1 0x40 PUSH0 KECCAK256 PUSH0 SWAP2 POP SWAP1 POP DUP1 PUSH0 ADD PUSH0 SWAP1 SLOAD SWAP1 PUSH2 0x100 EXP SWAP1 DIV PUSH20 0xFFFFFFFFFFFFFFFFFFFFFFFFFFFFFFFFFFFFFFFF AND SWAP1 DUP1 PUSH1 0x1 ADD PUSH0 SWAP1 SLOAD SWAP1 PUSH2 0x100 EXP SWAP1 DIV PUSH20 0xFFFFFFFFFFFFFFFFFFFFFFFFFFFFFFFFFFFFFFFF AND SWAP1 DUP1 PUSH1 0x2 ADD SLOAD SWAP1 DUP1 PUSH1 0x3 ADD PUSH0 SWAP1 SLOAD SWAP1 PUSH2 0x100 EXP SWAP1 DIV PUSH1 0xFF AND SWAP1 POP DUP5 JUMP JUMPDEST PUSH0 PUSH1 0x1 PUSH0 DUP4 DUP2 MSTORE PUSH1 0x20 ADD SWAP1 DUP2 MSTORE PUSH1 0x20 ADD PUSH0 KECCAK256 SWAP1 POP PUSH1 0x2 PUSH1 0x4 DUP2 GT ISZERO PUSH2 0x7B8 JUMPI PUSH2 0x7B7 PUSH2 0xE30 JUMP JUMPDEST JUMPDEST DUP2 PUSH1 0x3 ADD PUSH0 SWAP1 SLOAD SWAP1 PUSH2 0x100 EXP SWAP1 DIV PUSH1 0xFF AND PUSH1 0x4 DUP2 GT ISZERO PUSH2 0x7DB JUMPI PUSH2 0x7DA PUSH2 0xE30 JUMP JUMPDEST JUMPDEST EQ PUSH2 0x81B JUMPI PUSH1 0x40 MLOAD PUSH32 0x8C379A000000000000000000000000000000000000000000000000000000000 DUP2 MSTORE PUSH1 0x4 ADD PUSH2 0x812 SWAP1 PUSH2 0x122B JUMP JUMPDEST PUSH1 0x40 MLOAD DUP1 SWAP2 SUB SWAP1 REVERT JUMPDEST DUP1 PUSH0 ADD PUSH0 SWAP1 SLOAD SWAP1 PUSH2 0x100 EXP SWAP1 DIV PUSH20 0xFFFFFFFFFFFFFFFFFFFFFFFFFFFFFFFFFFFFFFFF AND PUSH20 0xFFFFFFFFFFFFFFFFFFFFFFFFFFFFFFFFFFFFFFFF AND CALLER PUSH20 0xFFFFFFFFFFFFFFFFFFFFFFFFFFFFFFFFFFFFFFFF AND EQ PUSH2 0x8AB JUMPI PUSH1 0x40 MLOAD PUSH32 0x8C379A000000000000000000000000000000000000000000000000000000000 DUP2 MSTORE PUSH1 0x4 ADD PUSH2 0x8A2 SWAP1 PUSH2 0x1293 JUMP JUMPDEST PUSH1 0x40 MLOAD DUP1 SWAP2 SUB SWAP1 REVERT JUMPDEST PUSH1 0x3 DUP2 PUSH1 0x3 ADD PUSH0 PUSH2 0x100 EXP DUP2 SLOAD DUP2 PUSH1 0xFF MUL NOT AND SWAP1 DUP4 PUSH1 0x4 DUP2 GT ISZERO PUSH2 0x8D2 JUMPI PUSH2 0x8D1 PUSH2 0xE30 JUMP JUMPDEST JUMPDEST MUL OR SWAP1 SSTORE POP PUSH0 DUP2 PUSH1 0x1 ADD PUSH0 SWAP1 SLOAD SWAP1 PUSH2 0x100 EXP SWAP1 DIV PUSH20 0xFFFFFFFFFFFFFFFFFFFFFFFFFFFFFFFFFFFFFFFF AND PUSH20 0xFFFFFFFFFFFFFFFFFFFFFFFFFFFFFFFFFFFFFFFF AND DUP3 PUSH1 0x2 ADD SLOAD PUSH1 0x40 MLOAD PUSH2 0x923 SWAP1 PUSH2 0x1165 JUMP JUMPDEST PUSH0 PUSH1 0x40 MLOAD DUP1 DUP4 SUB DUP2 DUP6 DUP8 GAS CALL SWAP3 POP POP POP RETURNDATASIZE DUP1 PUSH0 DUP2 EQ PUSH2 0x95D JUMPI PUSH1 0x40 MLOAD SWAP2 POP PUSH1 0x1F NOT PUSH1 0x3F RETURNDATASIZE ADD AND DUP3 ADD PUSH1 0x40 MSTORE RETURNDATASIZE DUP3 MSTORE RETURNDATASIZE PUSH0 PUSH1 0x20 DUP5 ADD RETURNDATACOPY PUSH2 0x962 JUMP JUMPDEST PUSH1 0x60 SWAP2 POP JUMPDEST POP POP SWAP1 POP DUP1 PUSH2 0x9A6 JUMPI PUSH1 0x40 MLOAD PUSH32 0x8C379A000000000000000000000000000000000000000000000000000000000 DUP2 MSTORE PUSH1 0x4 ADD PUSH2 0x99D SWAP1 PUSH2 0x12FB JUMP JUMPDEST PUSH1 0x40 MLOAD DUP1 SWAP2 SUB SWAP1 REVERT JUMPDEST DUP2 PUSH1 0x1 ADD PUSH0 SWAP1 SLOAD SWAP1 PUSH2 0x100 EXP SWAP1 DIV PUSH20 0xFFFFFFFFFFFFFFFFFFFFFFFFFFFFFFFFFFFFFFFF AND PUSH20 0xFFFFFFFFFFFFFFFFFFFFFFFFFFFFFFFFFFFFFFFF AND DUP4 PUSH32 0xA07FAADDA36641E27D06E326154D794C6C68F33A649DA404FC368078C66D4BEB DUP5 PUSH1 0x2 ADD SLOAD PUSH1 0x40 MLOAD PUSH2 0xA14 SWAP2 SWAP1 PUSH2 0xF49 JUMP JUMPDEST PUSH1 0x40 MLOAD DUP1 SWAP2 SUB SWAP1 LOG3 POP POP POP JUMP JUMPDEST PUSH0 CALLVALUE GT PUSH2 0xA63 JUMPI PUSH1 0x40 MLOAD PUSH32 0x8C379A000000000000000000000000000000000000000000000000000000000 DUP2 MSTORE PUSH1 0x4 ADD PUSH2 0xA5A SWAP1 PUSH2 0x1363 JUMP JUMPDEST PUSH1 0x40 MLOAD DUP1 SWAP2 SUB SWAP1 REVERT JUMPDEST PUSH0 PUSH0 DUP2 SLOAD DUP1 SWAP3 SWAP2 SWAP1 PUSH2 0xA74 SWAP1 PUSH2 0x13AE JUMP JUMPDEST SWAP2 SWAP1 POP SSTORE POP PUSH1 0x40 MLOAD DUP1 PUSH1 0x80 ADD PUSH1 0x40 MSTORE DUP1 CALLER PUSH20 0xFFFFFFFFFFFFFFFFFFFFFFFFFFFFFFFFFFFFFFFF AND DUP2 MSTORE PUSH1 0x20 ADD PUSH0 PUSH20 0xFFFFFFFFFFFFFFFFFFFFFFFFFFFFFFFFFFFFFFFF AND DUP2 MSTORE PUSH1 0x20 ADD CALLVALUE DUP2 MSTORE PUSH1 0x20 ADD PUSH0 PUSH1 0x4 DUP2 GT ISZERO PUSH2 0xAD5 JUMPI PUSH2 0xAD4 PUSH2 0xE30 JUMP JUMPDEST JUMPDEST DUP2 MSTORE POP PUSH1 0x1 PUSH0 PUSH0 SLOAD DUP2 MSTORE PUSH1 0x20 ADD SWAP1 DUP2 MSTORE PUSH1 0x20 ADD PUSH0 KECCAK256 PUSH0 DUP3 ADD MLOAD DUP2 PUSH0 ADD PUSH0 PUSH2 0x100 EXP DUP2 SLOAD DUP2 PUSH20 0xFFFFFFFFFFFFFFFFFFFFFFFFFFFFFFFFFFFFFFFF MUL NOT AND SWAP1 DUP4 PUSH20 0xFFFFFFFFFFFFFFFFFFFFFFFFFFFFFFFFFFFFFFFF AND MUL OR SWAP1 SSTORE POP PUSH1 0x20 DUP3 ADD MLOAD DUP2 PUSH1 0x1 ADD PUSH0 PUSH2 0x100 EXP DUP2 SLOAD DUP2 PUSH20 0xFFFFFFFFFFFFFFFFFFFFFFFFFFFFFFFFFFFFFFFF MUL NOT AND SWAP1 DUP4 PUSH20 0xFFFFFFFFFFFFFFFFFFFFFFFFFFFFFFFFFFFFFFFF AND MUL OR SWAP1 SSTORE POP PUSH1 0x40 DUP3 ADD MLOAD DUP2 PUSH1 0x2 ADD SSTORE PUSH1 0x60 DUP3 ADD MLOAD DUP2 PUSH1 0x3 ADD PUSH0 PUSH2 0x100 EXP DUP2 SLOAD DUP2 PUSH1 0xFF MUL NOT AND SWAP1 DUP4 PUSH1 0x4 DUP2 GT ISZERO PUSH2 0xBA8 JUMPI PUSH2 0xBA7 PUSH2 0xE30 JUMP JUMPDEST JUMPDEST MUL OR SWAP1 SSTORE POP SWAP1 POP POP CALLER PUSH20 0xFFFFFFFFFFFFFFFFFFFFFFFFFFFFFFFFFFFFFFFF AND PUSH0 SLOAD PUSH32 0x6CF53AA7292E664152C2EA948C3B3C95D4B05C36DAEB2626D0293473C4A4A153 CALLVALUE PUSH1 0x40 MLOAD PUSH2 0xBF8 SWAP2 SWAP1 PUSH2 0xF49 JUMP JUMPDEST PUSH1 0x40 MLOAD DUP1 SWAP2 SUB SWAP1 LOG3 JUMP JUMPDEST PUSH0 SLOAD DUP2 JUMP JUMPDEST PUSH0 PUSH1 0x1 PUSH0 DUP4 DUP2 MSTORE PUSH1 0x20 ADD SWAP1 DUP2 MSTORE PUSH1 0x20 ADD PUSH0 KECCAK256 SWAP1 POP PUSH1 0x1 PUSH1 0x4 DUP2 GT ISZERO PUSH2 0xC2F JUMPI PUSH2 0xC2E PUSH2 0xE30 JUMP JUMPDEST JUMPDEST DUP2 PUSH1 0x3 ADD PUSH0 SWAP1 SLOAD SWAP1 PUSH2 0x100 EXP SWAP1 DIV PUSH1 0xFF AND PUSH1 0x4 DUP2 GT ISZERO PUSH2 0xC52 JUMPI PUSH2 0xC51 PUSH2 0xE30 JUMP JUMPDEST JUMPDEST EQ PUSH2 0xC92 JUMPI PUSH1 0x40 MLOAD PUSH32 0x8C379A000000000000000000000000000000000000000000000000000000000 DUP2 MSTORE PUSH1 0x4 ADD PUSH2 0xC89 SWAP1 PUSH2 0x143F JUMP JUMPDEST PUSH1 0x40 MLOAD DUP1 SWAP2 SUB SWAP1 REVERT JUMPDEST DUP1 PUSH1 0x1 ADD PUSH0 SWAP1 SLOAD SWAP1 PUSH2 0x100 EXP SWAP1 DIV PUSH20 0xFFFFFFFFFFFFFFFFFFFFFFFFFFFFFFFFFFFFFFFF AND PUSH20 0xFFFFFFFFFFFFFFFFFFFFFFFFFFFFFFFFFFFFFFFF AND CALLER PUSH20 0xFFFFFFFFFFFFFFFFFFFFFFFFFFFFFFFFFFFFFFFF AND EQ PUSH2 0xD23 JUMPI PUSH1 0x40 MLOAD PUSH32 0x8C379A000000000000000000000000000000000000000000000000000000000 DUP2 MSTORE PUSH1 0x4 ADD PUSH2 0xD1A SWAP1 PUSH2 0x14A7 JUMP JUMPDEST PUSH1 0x40 MLOAD DUP1 SWAP2 SUB SWAP1 REVERT JUMPDEST PUSH1 0x2 DUP2 PUSH1 0x3 ADD PUSH0 PUSH2 0x100 EXP DUP2 SLOAD DUP2 PUSH1 0xFF MUL NOT AND SWAP1 DUP4 PUSH1 0x4 DUP2 GT ISZERO PUSH2 0xD4A JUMPI PUSH2 0xD49 PUSH2 0xE30 JUMP JUMPDEST JUMPDEST MUL OR SWAP1 SSTORE POP DUP2 PUSH32 0xC1FA7142CFB933D0855114A3BFFDE296944C30B727F297C14D0DB4D553D3A5C7 PUSH1 0x40 MLOAD PUSH1 0x40 MLOAD DUP1 SWAP2 SUB SWAP1 LOG2 POP POP JUMP JUMPDEST PUSH0 PUSH0 REVERT JUMPDEST PUSH0 DUP2 SWAP1 POP SWAP2 SWAP1 POP JUMP JUMPDEST PUSH2 0xD96 DUP2 PUSH2 0xD84 JUMP JUMPDEST DUP2 EQ PUSH2 0xDA0 JUMPI PUSH0 PUSH0 REVERT JUMPDEST POP JUMP JUMPDEST PUSH0 DUP2 CALLDATALOAD SWAP1 POP PUSH2 0xDB1 DUP2 PUSH2 0xD8D JUMP JUMPDEST SWAP3 SWAP2 POP POP JUMP JUMPDEST PUSH0 PUSH1 0x20 DUP3 DUP5 SUB SLT ISZERO PUSH2 0xDCC JUMPI PUSH2 0xDCB PUSH2 0xD80 JUMP JUMPDEST JUMPDEST PUSH0 PUSH2 0xDD9 DUP5 DUP3 DUP6 ADD PUSH2 0xDA3 JUMP JUMPDEST SWAP2 POP POP SWAP3 SWAP2 POP POP JUMP JUMPDEST PUSH0 PUSH20 0xFFFFFFFFFFFFFFFFFFFFFFFFFFFFFFFFFFFFFFFF DUP3 AND SWAP1 POP SWAP2 SWAP1 POP JUMP JUMPDEST PUSH0 PUSH2 0xE0B DUP3 PUSH2 0xDE2 JUMP JUMPDEST SWAP1 POP SWAP2 SWAP1 POP JUMP JUMPDEST PUSH2 0xE1B DUP2 PUSH2 0xE01 JUMP JUMPDEST DUP3 MSTORE POP POP JUMP JUMPDEST PUSH2 0xE2A DUP2 PUSH2 0xD84 JUMP JUMPDEST DUP3 MSTORE POP POP JUMP JUMPDEST PUSH32 0x4E487B7100000000000000000000000000000000000000000000000000000000 PUSH0 MSTORE PUSH1 0x21 PUSH1 0x4 MSTORE PUSH1 0x24 PUSH0 REVERT JUMPDEST PUSH1 0x5 DUP2 LT PUSH2 0xE6E JUMPI PUSH2 0xE6D PUSH2 0xE30 JUMP JUMPDEST JUMPDEST POP JUMP JUMPDEST PUSH0 DUP2 SWAP1 POP PUSH2 0xE7E DUP3 PUSH2 0xE5D JUMP JUMPDEST SWAP2 SWAP1 POP JUMP JUMPDEST PUSH0 PUSH2 0xE8D DUP3 PUSH2 0xE71 JUMP JUMPDEST SWAP1 POP SWAP2 SWAP1 POP JUMP JUMPDEST PUSH2 0xE9D DUP2 PUSH2 0xE83 JUMP JUMPDEST DUP3 MSTORE POP POP JUMP JUMPDEST PUSH0 PUSH1 0x80 DUP3 ADD SWAP1 POP PUSH2 0xEB6 PUSH0 DUP4 ADD DUP8 PUSH2 0xE12 JUMP JUMPDEST PUSH2 0xEC3 PUSH1 0x20 DUP4 ADD DUP7 PUSH2 0xE12 JUMP JUMPDEST PUSH2 0xED0 PUSH1 0x40 DUP4 ADD DUP6 PUSH2 0xE21 JUMP JUMPDEST PUSH2 0xEDD PUSH1 0x60 DUP4 ADD DUP5 PUSH2 0xE94 JUMP JUMPDEST SWAP6 SWAP5 POP POP POP POP POP JUMP JUMPDEST PUSH0 PUSH2 0xEF0 DUP3 PUSH2 0xDE2 JUMP JUMPDEST SWAP1 POP SWAP2 SWAP1 POP JUMP JUMPDEST PUSH2 0xF00 DUP2 PUSH2 0xEE6 JUMP JUMPDEST DUP3 MSTORE POP POP JUMP JUMPDEST PUSH0 PUSH1 0x80 DUP3 ADD SWAP1 POP PUSH2 0xF19 PUSH0 DUP4 ADD DUP8 PUSH2 0xEF7 JUMP JUMPDEST PUSH2 0xF26 PUSH1 0x20 DUP4 ADD DUP7 PUSH2 0xEF7 JUMP JUMPDEST PUSH2 0xF33 PUSH1 0x40 DUP4 ADD DUP6 PUSH2 0xE21 JUMP JUMPDEST PUSH2 0xF40 PUSH1 0x60 DUP4 ADD DUP5 PUSH2 0xE94 JUMP JUMPDEST SWAP6 SWAP5 POP POP POP POP POP JUMP JUMPDEST PUSH0 PUSH1 0x20 DUP3 ADD SWAP1 POP PUSH2 0xF5C PUSH0 DUP4 ADD DUP5 PUSH2 0xE21 JUMP JUMPDEST SWAP3 SWAP2 POP POP JUMP JUMPDEST PUSH0 DUP3 DUP3 MSTORE PUSH1 0x20 DUP3 ADD SWAP1 POP SWAP3 SWAP2 POP POP JUMP JUMPDEST PUSH32 0x5461736B206973206E6F74206F70656E00000000000000000000000000000000 PUSH0 DUP3 ADD MSTORE POP JUMP JUMPDEST PUSH0 PUSH2 0xFA6 PUSH1 0x10 DUP4 PUSH2 0xF62 JUMP JUMPDEST SWAP2 POP PUSH2 0xFB1 DUP3 PUSH2 0xF72 JUMP JUMPDEST PUSH1 0x20 DUP3 ADD SWAP1 POP SWAP2 SWAP1 POP JUMP JUMPDEST PUSH0 PUSH1 0x20 DUP3 ADD SWAP1 POP DUP2 DUP2 SUB PUSH0 DUP4 ADD MSTORE PUSH2 0xFD3 DUP2 PUSH2 0xF9A JUMP JUMPDEST SWAP1 POP SWAP2 SWAP1 POP JUMP JUMPDEST PUSH32 0x436C69656E742063616E6E6F7420616363657074206F776E207461736B000000 PUSH0 DUP3 ADD MSTORE POP JUMP JUMPDEST PUSH0 PUSH2 0x100E PUSH1 0x1D DUP4 PUSH2 0xF62 JUMP JUMPDEST SWAP2 POP PUSH2 0x1019 DUP3 PUSH2 0xFDA JUMP JUMPDEST PUSH1 0x20 DUP3 ADD SWAP1 POP SWAP2 SWAP1 POP JUMP JUMPDEST PUSH0 PUSH1 0x20 DUP3 ADD SWAP1 POP DUP2 DUP2 SUB PUSH0 DUP4 ADD MSTORE PUSH2 0x103B DUP2 PUSH2 0x1002 JUMP JUMPDEST SWAP1 POP SWAP2 SWAP1 POP JUMP JUMPDEST PUSH32 0x4F6E6C7920636C69656E74206F7220667265656C616E6365722063616E206361 PUSH0 DUP3 ADD MSTORE PUSH32 0x6E63656C00000000000000000000000000000000000000000000000000000000 PUSH1 0x20 DUP3 ADD MSTORE POP JUMP JUMPDEST PUSH0 PUSH2 0x109C PUSH1 0x24 DUP4 PUSH2 0xF62 JUMP JUMPDEST SWAP2 POP PUSH2 0x10A7 DUP3 PUSH2 0x1042 JUMP JUMPDEST PUSH1 0x40 DUP3 ADD SWAP1 POP SWAP2 SWAP1 POP JUMP JUMPDEST PUSH0 PUSH1 0x20 DUP3 ADD SWAP1 POP DUP2 DUP2 SUB PUSH0 DUP4 ADD MSTORE PUSH2 0x10C9 DUP2 PUSH2 0x1090 JUMP JUMPDEST SWAP1 POP SWAP2 SWAP1 POP JUMP JUMPDEST PUSH32 0x5461736B2063616E6E6F742062652063616E63656C6C65640000000000000000 PUSH0 DUP3 ADD MSTORE POP JUMP JUMPDEST PUSH0 PUSH2 0x1104 PUSH1 0x18 DUP4 PUSH2 0xF62 JUMP JUMPDEST SWAP2 POP PUSH2 0x110F DUP3 PUSH2 0x10D0 JUMP JUMPDEST PUSH1 0x20 DUP3 ADD SWAP1 POP SWAP2 SWAP1 POP JUMP JUMPDEST PUSH0 PUSH1 0x20 DUP3 ADD SWAP1 POP DUP2 DUP2 SUB PUSH0 DUP4 ADD MSTORE PUSH2 0x1131 DUP2 PUSH2 0x10F8 JUMP JUMPDEST SWAP1 POP SWAP2 SWAP1 POP JUMP JUMPDEST PUSH0 DUP2 SWAP1 POP SWAP3 SWAP2 POP POP JUMP JUMPDEST POP JUMP JUMPDEST PUSH0 PUSH2 0x1150 PUSH0 DUP4 PUSH2 0x1138 JUMP JUMPDEST SWAP2 POP PUSH2 0x115B DUP3 PUSH2 0x1142 JUMP JUMPDEST PUSH0 DUP3 ADD SWAP1 POP SWAP2 SWAP1 POP JUMP JUMPDEST PUSH0 PUSH2 0x116F DUP3 PUSH2 0x1145 JUMP JUMPDEST SWAP2 POP DUP2 SWAP1 POP SWAP2 SWAP1 POP JUMP JUMPDEST PUSH32 0x526566756E64206661696C656400000000000000000000000000000000000000 PUSH0 DUP3 ADD MSTORE POP JUMP JUMPDEST PUSH0 PUSH2 0x11AD PUSH1 0xD DUP4 PUSH2 0xF62 JUMP JUMPDEST SWAP2 POP PUSH2 0x11B8 DUP3 PUSH2 0x1179 JUMP JUMPDEST PUSH1 0x20 DUP3 ADD SWAP1 POP SWAP2 SWAP1 POP JUMP JUMPDEST PUSH0 PUSH1 0x20 DUP3 ADD SWAP1 POP DUP2 DUP2 SUB PUSH0 DUP4 ADD MSTORE PUSH2 0x11DA DUP2 PUSH2 0x11A1 JUMP JUMPDEST SWAP1 POP SWAP2 SWAP1 POP JUMP JUMPDEST PUSH32 0x5461736B206E6F7420636F6D706C657465640000000000000000000000000000 PUSH0 DUP3 ADD MSTORE POP JUMP JUMPDEST PUSH0 PUSH2 0x1215 PUSH1 0x12 DUP4 PUSH2 0xF62 JUMP JUMPDEST SWAP2 POP PUSH2 0x1220 DUP3 PUSH2 0x11E1 JUMP JUMPDEST PUSH1 0x20 DUP3 ADD SWAP1 POP SWAP2 SWAP1 POP JUMP JUMPDEST PUSH0 PUSH1 0x20 DUP3 ADD SWAP1 POP DUP2 DUP2 SUB PUSH0 DUP4 ADD MSTORE PUSH2 0x1242 DUP2 PUSH2 0x1209 JUMP JUMPDEST SWAP1 POP SWAP2 SWAP1 POP JUMP JUMPDEST PUSH32 0x4F6E6C7920636C69656E742063616E20636F6E6669726D000000000000000000 PUSH0 DUP3 ADD MSTORE POP JUMP JUMPDEST PUSH0 PUSH2 0x127D PUSH1 0x17 DUP4 PUSH2 0xF62 JUMP JUMPDEST SWAP2 POP PUSH2 0x1288 DUP3 PUSH2 0x1249 JUMP JUMPDEST PUSH1 0x20 DUP3 ADD SWAP1 POP SWAP2 SWAP1 POP JUMP JUMPDEST PUSH0 PUSH1 0x20 DUP3 ADD SWAP1 POP DUP2 DUP2 SUB PUSH0 DUP4 ADD MSTORE PUSH2 0x12AA DUP2 PUSH2 0x1271 JUMP JUMPDEST SWAP1 POP SWAP2 SWAP1 POP JUMP JUMPDEST PUSH32 0x5061796D656E74206661696C6564000000000000000000000000000000000000 PUSH0 DUP3 ADD MSTORE POP JUMP JUMPDEST PUSH0 PUSH2 0x12E5 PUSH1 0xE DUP4 PUSH2 0xF62 JUMP JUMPDEST SWAP2 POP PUSH2 0x12F0 DUP3 PUSH2 0x12B1 JUMP JUMPDEST PUSH1 0x20 DUP3 ADD SWAP1 POP SWAP2 SWAP1 POP JUMP JUMPDEST PUSH0 PUSH1 0x20 DUP3 ADD SWAP1 POP DUP2 DUP2 SUB PUSH0 DUP4 ADD MSTORE PUSH2 0x1312 DUP2 PUSH2 0x12D9 JUMP JUMPDEST SWAP1 POP SWAP2 SWAP1 POP JUMP JUMPDEST PUSH32 0x5061796D656E74206D7573742062652067726561746572207468616E20300000 PUSH0 DUP3 ADD MSTORE POP JUMP JUMPDEST PUSH0 PUSH2 0x134D PUSH1 0x1E DUP4 PUSH2 0xF62 JUMP JUMPDEST SWAP2 POP PUSH2 0x1358 DUP3 PUSH2 0x1319 JUMP JUMPDEST PUSH1 0x20 DUP3 ADD SWAP1 POP SWAP2 SWAP1 POP JUMP JUMPDEST PUSH0 PUSH1 0x20 DUP3 ADD SWAP1 POP DUP2 DUP2 SUB PUSH0 DUP4 ADD MSTORE PUSH2 0x137A DUP2 PUSH2 0x1341 JUMP JUMPDEST SWAP1 POP SWAP2 SWAP1 POP JUMP JUMPDEST PUSH32 0x4E487B7100000000000000000000000000000000000000000000000000000000 PUSH0 MSTORE PUSH1 0x11 PUSH1 0x4 MSTORE PUSH1 0x24 PUSH0 REVERT JUMPDEST PUSH0 PUSH2 0x13B8 DUP3 PUSH2 0xD84 JUMP JUMPDEST SWAP2 POP PUSH32 0xFFFFFFFFFFFFFFFFFFFFFFFFFFFFFFFFFFFFFFFFFFFFFFFFFFFFFFFFFFFFFFFF DUP3 SUB PUSH2 0x13EA JUMPI PUSH2 0x13E9 PUSH2 0x1381 JUMP JUMPDEST JUMPDEST PUSH1 0x1 DUP3 ADD SWAP1 POP SWAP2 SWAP1 POP JUMP JUMPDEST PUSH32 0x5461736B206E6F7420696E2070726F6772657373000000000000000000000000 PUSH0 DUP3 ADD MSTORE POP JUMP JUMPDEST PUSH0 PUSH2 0x1429 PUSH1 0x14 DUP4 PUSH2 0xF62 JUMP JUMPDEST SWAP2 POP PUSH2 0x1434 DUP3 PUSH2 0x13F5 JUMP JUMPDEST PUSH1 0x20 DUP3 ADD SWAP1 POP SWAP2 SWAP1 POP JUMP JUMPDEST PUSH0 PUSH1 0x20 DUP3 ADD SWAP1 POP DUP2 DUP2 SUB PUSH0 DUP4 ADD MSTORE PUSH2 0x1456 DUP2 PUSH2 0x141D JUMP JUMPDEST SWAP1 POP SWAP2 SWAP1 POP JUMP JUMPDEST PUSH32 0x4F6E6C7920667265656C616E6365722063616E20636F6D706C65746500000000 PUSH0 DUP3 ADD MSTORE POP JUMP JUMPDEST PUSH0 PUSH2 0x1491 PUSH1 0x1C DUP4 PUSH2 0xF62 JUMP JUMPDEST SWAP2 POP PUSH2 0x149C DUP3 PUSH2 0x145D JUMP JUMPDEST PUSH1 0x20 DUP3 ADD SWAP1 POP SWAP2 SWAP1 POP JUMP JUMPDEST PUSH0 PUSH1 0x20 DUP3 ADD SWAP1 POP DUP2 DUP2 SUB PUSH0 DUP4 ADD MSTORE PUSH2 0x14BE DUP2 PUSH2 0x1485 JUMP JUMPDEST SWAP1 POP SWAP2 SWAP1 POP JUMP INVALID LOG2 PUSH5 0x6970667358 0x22 SLT KECCAK256 RETURNCONTRACT 0xF1 TLOAD RETURNDATACOPY DUP16 DUPN 0x8A 0x4F SELFDESTRUCT JUMPF 0x64CE RETF GT SDIV 0xB7 0xD 0xCD SGT BYTE 0xD5 PUSH10 0xB85E4A20DB6DCA329F10 PUSH5 0x736F6C6343 STOP ADDMOD 0x1E STOP CALLER "
				},
				"gasEstimates": {
					"creation": {
						"codeDepositCost": "1074200",
						"executionCost": "1112",
						"totalCost": "1075312"
					},
					"external": {
						"acceptTask(uint256)": "54980",
						"cancelTask(uint256)": "infinite",
						"confirmAndPay(uint256)": "infinite",
						"createTask()": "infinite",
						"getTask(uint256)": "infinite",
						"markCompleted(uint256)": "30393",
						"taskCount()": "2468",
						"tasks(uint256)": "infinite"
					}
				},
				"methodIdentifiers": {
					"acceptTask(uint256)": "1bf6912d",
					"cancelTask(uint256)": "7eec20a8",
					"confirmAndPay(uint256)": "93bb2284",
					"createTask()": "a7476493",
					"getTask(uint256)": "1d65e77e",
					"markCompleted(uint256)": "cac5c512",
					"taskCount()": "b6cb58a5",
					"tasks(uint256)": "8d977672"
				}
			},
			"storageLayout": {
				"storage": [
					{
						"astId": 19,
						"contract": "4uzd_done.sol:eSutartis",
						"label": "taskCount",
						"offset": 0,
						"slot": "0",
						"type": "t_uint256"
					},
					{
						"astId": 24,
						"contract": "4uzd_done.sol:eSutartis",
						"label": "tasks",
						"offset": 0,
						"slot": "1",
						"type": "t_mapping(t_uint256,t_struct(Task)17_storage)"
					}
				],
				"types": {
					"t_address_payable": {
						"encoding": "inplace",
						"label": "address payable",
						"numberOfBytes": "20"
					},
					"t_enum(Status)7": {
						"encoding": "inplace",
						"label": "enum eSutartis.Status",
						"numberOfBytes": "1"
					},
					"t_mapping(t_uint256,t_struct(Task)17_storage)": {
						"encoding": "mapping",
						"key": "t_uint256",
						"label": "mapping(uint256 => struct eSutartis.Task)",
						"numberOfBytes": "32",
						"value": "t_struct(Task)17_storage"
					},
					"t_struct(Task)17_storage": {
						"encoding": "inplace",
						"label": "struct eSutartis.Task",
						"members": [
							{
								"astId": 9,
								"contract": "4uzd_done.sol:eSutartis",
								"label": "client",
								"offset": 0,
								"slot": "0",
								"type": "t_address_payable"
							},
							{
								"astId": 11,
								"contract": "4uzd_done.sol:eSutartis",
								"label": "freelancer",
								"offset": 0,
								"slot": "1",
								"type": "t_address_payable"
							},
							{
								"astId": 13,
								"contract": "4uzd_done.sol:eSutartis",
								"label": "payment",
								"offset": 0,
								"slot": "2",
								"type": "t_uint256"
							},
							{
								"astId": 16,
								"contract": "4uzd_done.sol:eSutartis",
								"label": "status",
								"offset": 0,
								"slot": "3",
								"type": "t_enum(Status)7"
							}
						],
						"numberOfBytes": "128"
					},
					"t_uint256": {
						"encoding": "inplace",
						"label": "uint256",
						"numberOfBytes": "32"
					}
				}
			},
			"userdoc": {
				"kind": "user",
				"methods": {},
				"version": 1
			}
		}
	}
}